{
  "_format": "hh-sol-artifact-1",
  "contractName": "MyNftGame",
  "sourceName": "contracts/MyNftGame.sol",
  "abi": [
    {
      "inputs": [
        {
          "internalType": "string[]",
          "name": "characterNames",
          "type": "string[]"
        },
        {
          "internalType": "string[]",
          "name": "characterImgs",
          "type": "string[]"
        },
        {
          "internalType": "uint256[]",
          "name": "characterMaxHp",
          "type": "uint256[]"
        },
        {
          "internalType": "uint256[]",
          "name": "characterAttackDmg",
          "type": "uint256[]"
        },
        {
          "internalType": "string[]",
          "name": "bossNames",
          "type": "string[]"
        },
        {
          "internalType": "string[]",
          "name": "bossImgs",
          "type": "string[]"
        },
        {
          "internalType": "uint256[]",
          "name": "bossMaxHp",
          "type": "uint256[]"
        },
        {
          "internalType": "uint256[]",
          "name": "bossAttackDmg",
          "type": "uint256[]"
        }
      ],
      "stateMutability": "nonpayable",
      "type": "constructor"
    },
    {
      "anonymous": false,
      "inputs": [
        {
          "indexed": true,
          "internalType": "address",
          "name": "owner",
          "type": "address"
        },
        {
          "indexed": true,
          "internalType": "address",
          "name": "approved",
          "type": "address"
        },
        {
          "indexed": true,
          "internalType": "uint256",
          "name": "tokenId",
          "type": "uint256"
        }
      ],
      "name": "Approval",
      "type": "event"
    },
    {
      "anonymous": false,
      "inputs": [
        {
          "indexed": true,
          "internalType": "address",
          "name": "owner",
          "type": "address"
        },
        {
          "indexed": true,
          "internalType": "address",
          "name": "operator",
          "type": "address"
        },
        {
          "indexed": false,
          "internalType": "bool",
          "name": "approved",
          "type": "bool"
        }
      ],
      "name": "ApprovalForAll",
      "type": "event"
    },
    {
      "anonymous": false,
      "inputs": [
        {
          "indexed": true,
          "internalType": "address",
          "name": "addr",
          "type": "address"
        },
        {
          "indexed": false,
          "internalType": "uint256",
          "name": "characterIndex",
          "type": "uint256"
        },
        {
          "indexed": true,
          "internalType": "uint256",
          "name": "characterHp",
          "type": "uint256"
        },
        {
          "indexed": false,
          "internalType": "uint256",
          "name": "bossIndex",
          "type": "uint256"
        },
        {
          "indexed": true,
          "internalType": "uint256",
          "name": "bossHp",
          "type": "uint256"
        }
      ],
      "name": "AttackComplete",
      "type": "event"
    },
    {
      "anonymous": false,
      "inputs": [
        {
          "indexed": true,
          "internalType": "address",
          "name": "addr",
          "type": "address"
        },
        {
          "indexed": true,
          "internalType": "uint256",
          "name": "characterIndex",
          "type": "uint256"
        }
      ],
      "name": "CreateCharacter",
      "type": "event"
    },
    {
      "anonymous": false,
      "inputs": [
        {
          "indexed": true,
          "internalType": "address",
          "name": "from",
          "type": "address"
        },
        {
          "indexed": true,
          "internalType": "address",
          "name": "to",
          "type": "address"
        },
        {
          "indexed": true,
          "internalType": "uint256",
          "name": "tokenId",
          "type": "uint256"
        }
      ],
      "name": "Transfer",
      "type": "event"
    },
    {
      "inputs": [
        {
          "internalType": "address",
          "name": "to",
          "type": "address"
        },
        {
          "internalType": "uint256",
          "name": "tokenId",
          "type": "uint256"
        }
      ],
      "name": "approve",
      "outputs": [],
      "stateMutability": "nonpayable",
      "type": "function"
    },
    {
      "inputs": [
        {
          "internalType": "uint8",
          "name": "index",
          "type": "uint8"
        }
      ],
      "name": "attackBoss",
      "outputs": [],
      "stateMutability": "nonpayable",
      "type": "function"
    },
    {
      "inputs": [
        {
          "internalType": "address",
          "name": "owner",
          "type": "address"
        }
      ],
      "name": "balanceOf",
      "outputs": [
        {
          "internalType": "uint256",
          "name": "",
          "type": "uint256"
        }
      ],
      "stateMutability": "view",
      "type": "function"
    },
    {
      "inputs": [
        {
          "internalType": "address",
          "name": "account",
          "type": "address"
        }
      ],
      "name": "checkIfUserHasNft",
      "outputs": [
        {
          "internalType": "bool",
          "name": "",
          "type": "bool"
        }
      ],
      "stateMutability": "view",
      "type": "function"
    },
    {
      "inputs": [
        {
          "internalType": "uint256",
          "name": "_characterIndex",
          "type": "uint256"
        }
      ],
      "name": "createCharacter",
      "outputs": [],
      "stateMutability": "nonpayable",
      "type": "function"
    },
    {
      "inputs": [],
      "name": "getAllDefaultCharacters",
      "outputs": [
        {
          "components": [
            {
              "internalType": "uint256",
              "name": "characterIndex",
              "type": "uint256"
            },
            {
              "internalType": "string",
              "name": "name",
              "type": "string"
            },
            {
              "internalType": "string",
              "name": "imgURI",
              "type": "string"
            },
            {
              "internalType": "uint256",
              "name": "hp",
              "type": "uint256"
            },
            {
              "internalType": "uint256",
              "name": "maxHp",
              "type": "uint256"
            },
            {
              "internalType": "uint256",
              "name": "attackDamage",
              "type": "uint256"
            }
          ],
          "internalType": "struct MyNftGame.CharacterAttributes[]",
          "name": "",
          "type": "tuple[]"
        }
      ],
      "stateMutability": "view",
      "type": "function"
    },
    {
      "inputs": [
        {
          "internalType": "uint256",
          "name": "tokenId",
          "type": "uint256"
        }
      ],
      "name": "getApproved",
      "outputs": [
        {
          "internalType": "address",
          "name": "",
          "type": "address"
        }
      ],
      "stateMutability": "view",
      "type": "function"
    },
    {
      "inputs": [],
      "name": "getCharacters",
      "outputs": [
        {
          "internalType": "uint256[]",
          "name": "",
          "type": "uint256[]"
        }
      ],
      "stateMutability": "view",
      "type": "function"
    },
    {
      "inputs": [],
      "name": "getCurrentBoss",
      "outputs": [
        {
          "components": [
            {
              "internalType": "uint256",
              "name": "bossIndex",
              "type": "uint256"
            },
            {
              "internalType": "string",
              "name": "name",
              "type": "string"
            },
            {
              "internalType": "string",
              "name": "imgURI",
              "type": "string"
            },
            {
              "internalType": "uint256",
              "name": "hp",
              "type": "uint256"
            },
            {
              "internalType": "uint256",
              "name": "maxHp",
              "type": "uint256"
            },
            {
              "internalType": "uint256",
              "name": "attackDamage",
              "type": "uint256"
            }
          ],
          "internalType": "struct MyNftGame.BossAttributes",
          "name": "",
          "type": "tuple"
        }
      ],
      "stateMutability": "view",
      "type": "function"
    },
    {
      "inputs": [
        {
          "internalType": "address",
          "name": "owner",
          "type": "address"
        },
        {
          "internalType": "address",
          "name": "operator",
          "type": "address"
        }
      ],
      "name": "isApprovedForAll",
      "outputs": [
        {
          "internalType": "bool",
          "name": "",
          "type": "bool"
        }
      ],
      "stateMutability": "view",
      "type": "function"
    },
    {
      "inputs": [],
      "name": "name",
      "outputs": [
        {
          "internalType": "string",
          "name": "",
          "type": "string"
        }
      ],
      "stateMutability": "view",
      "type": "function"
    },
    {
      "inputs": [
        {
          "internalType": "uint256",
          "name": "",
          "type": "uint256"
        }
      ],
      "name": "nftAttributes",
      "outputs": [
        {
          "internalType": "uint256",
          "name": "characterIndex",
          "type": "uint256"
        },
        {
          "internalType": "string",
          "name": "name",
          "type": "string"
        },
        {
          "internalType": "string",
          "name": "imgURI",
          "type": "string"
        },
        {
          "internalType": "uint256",
          "name": "hp",
          "type": "uint256"
        },
        {
          "internalType": "uint256",
          "name": "maxHp",
          "type": "uint256"
        },
        {
          "internalType": "uint256",
          "name": "attackDamage",
          "type": "uint256"
        }
      ],
      "stateMutability": "view",
      "type": "function"
    },
    {
      "inputs": [
        {
          "internalType": "address",
          "name": "",
          "type": "address"
        },
        {
          "internalType": "uint256",
          "name": "",
          "type": "uint256"
        }
      ],
      "name": "ntfOwned",
      "outputs": [
        {
          "internalType": "uint256",
          "name": "",
          "type": "uint256"
        }
      ],
      "stateMutability": "view",
      "type": "function"
    },
    {
      "inputs": [
        {
          "internalType": "uint256",
          "name": "tokenId",
          "type": "uint256"
        }
      ],
      "name": "ownerOf",
      "outputs": [
        {
          "internalType": "address",
          "name": "",
          "type": "address"
        }
      ],
      "stateMutability": "view",
      "type": "function"
    },
    {
      "inputs": [
        {
          "internalType": "address",
          "name": "from",
          "type": "address"
        },
        {
          "internalType": "address",
          "name": "to",
          "type": "address"
        },
        {
          "internalType": "uint256",
          "name": "tokenId",
          "type": "uint256"
        }
      ],
      "name": "safeTransferFrom",
      "outputs": [],
      "stateMutability": "nonpayable",
      "type": "function"
    },
    {
      "inputs": [
        {
          "internalType": "address",
          "name": "from",
          "type": "address"
        },
        {
          "internalType": "address",
          "name": "to",
          "type": "address"
        },
        {
          "internalType": "uint256",
          "name": "tokenId",
          "type": "uint256"
        },
        {
          "internalType": "bytes",
          "name": "data",
          "type": "bytes"
        }
      ],
      "name": "safeTransferFrom",
      "outputs": [],
      "stateMutability": "nonpayable",
      "type": "function"
    },
    {
      "inputs": [
        {
          "internalType": "address",
          "name": "operator",
          "type": "address"
        },
        {
          "internalType": "bool",
          "name": "approved",
          "type": "bool"
        }
      ],
      "name": "setApprovalForAll",
      "outputs": [],
      "stateMutability": "nonpayable",
      "type": "function"
    },
    {
      "inputs": [
        {
          "internalType": "bytes4",
          "name": "interfaceId",
          "type": "bytes4"
        }
      ],
      "name": "supportsInterface",
      "outputs": [
        {
          "internalType": "bool",
          "name": "",
          "type": "bool"
        }
      ],
      "stateMutability": "view",
      "type": "function"
    },
    {
      "inputs": [],
      "name": "symbol",
      "outputs": [
        {
          "internalType": "string",
          "name": "",
          "type": "string"
        }
      ],
      "stateMutability": "view",
      "type": "function"
    },
    {
      "inputs": [
        {
          "internalType": "uint256",
          "name": "__tokenId",
          "type": "uint256"
        }
      ],
      "name": "tokenURI",
      "outputs": [
        {
          "internalType": "string",
          "name": "",
          "type": "string"
        }
      ],
      "stateMutability": "view",
      "type": "function"
    },
    {
      "inputs": [
        {
          "internalType": "address",
          "name": "from",
          "type": "address"
        },
        {
          "internalType": "address",
          "name": "to",
          "type": "address"
        },
        {
          "internalType": "uint256",
          "name": "tokenId",
          "type": "uint256"
        }
      ],
      "name": "transferFrom",
      "outputs": [],
      "stateMutability": "nonpayable",
      "type": "function"
    }
  ],
  "bytecode": "0x60806040523480156200001157600080fd5b506040516200555038038062005550833981810160405281019062000037919062000982565b6040518060400160405280600681526020017f4865726f657300000000000000000000000000000000000000000000000000008152506040518060400160405280600481526020017f4865726f000000000000000000000000000000000000000000000000000000008152508160009081620000b4919062000d84565b508060019081620000c6919062000d84565b50505060005b8851811015620003685760066040518060c001604052808381526020018b8481518110620000ff57620000fe62000e6b565b5b602002602001015181526020018a848151811062000122576200012162000e6b565b5b6020026020010151815260200189848151811062000145576200014462000e6b565b5b6020026020010151815260200189848151811062000168576200016762000e6b565b5b602002602001015181526020018884815181106200018b576200018a62000e6b565b5b60200260200101518152509080600181540180825580915050600190039060005260206000209060060201600090919091909150600082015181600001556020820151816001019081620001e0919062000d84565b506040820151816002019081620001f8919062000d84565b50606082015181600301556080820151816004015560a08201518160050155505060076040518060c0016040528083815260200187848151811062000242576200024162000e6b565b5b6020026020010151815260200186848151811062000265576200026462000e6b565b5b6020026020010151815260200185848151811062000288576200028762000e6b565b5b60200260200101518152602001858481518110620002ab57620002aa62000e6b565b5b60200260200101518152602001848481518110620002ce57620002cd62000e6b565b5b6020026020010151815250908060018154018082558091505060019003906000526020600020906006020160009091909190915060008201518160000155602082015181600101908162000323919062000d84565b5060408201518160020190816200033b919062000d84565b50606082015181600301556080820151816004015560a082015181600501555050600181019050620000cc565b6200037f600e6200050060201b6200152b1760201c565b6000600343446040516020016200039892919062000ebf565b6040516020818303038152906040528051906020012060001c81620003c257620003c162000eef565b5b06905060078181548110620003dc57620003db62000e6b565b5b9060005260206000209060060201600860008201548160000155600182018160010190816200040c919062000f36565b506002820181600201908162000423919062000f36565b50600382015481600301556004820154816004015560058201548160050155905050620004f0600860010180546200045b9062000b7d565b80601f0160208091040260200160405190810160405280929190818152602001828054620004899062000b7d565b8015620004da5780601f10620004ae57610100808354040283529160200191620004da565b820191906000526020600020905b815481529060010190602001808311620004bc57829003601f168201915b50505050506200051660201b620015411760201c565b50505050505050505050620010ad565b6001816000016000828254019250508190555050565b620005b6816040516024016200052d919062001089565b6040516020818303038152906040527f41304fac000000000000000000000000000000000000000000000000000000007bffffffffffffffffffffffffffffffffffffffffffffffffffffffff19166020820180517bffffffffffffffffffffffffffffffffffffffffffffffffffffffff8381831617835250505050620005b960201b60201c565b50565b60008151905060006a636f6e736f6c652e6c6f679050602083016000808483855afa5050505050565b6000604051905090565b600080fd5b600080fd5b600080fd5b6000601f19601f8301169050919050565b7f4e487b7100000000000000000000000000000000000000000000000000000000600052604160045260246000fd5b6200064682620005fb565b810181811067ffffffffffffffff821117156200066857620006676200060c565b5b80604052505050565b60006200067d620005e2565b90506200068b82826200063b565b919050565b600067ffffffffffffffff821115620006ae57620006ad6200060c565b5b602082029050602081019050919050565b600080fd5b600080fd5b600067ffffffffffffffff821115620006e757620006e66200060c565b5b620006f282620005fb565b9050602081019050919050565b60005b838110156200071f57808201518184015260208101905062000702565b60008484015250505050565b6000620007426200073c84620006c9565b62000671565b905082815260208101848484011115620007615762000760620006c4565b5b6200076e848285620006ff565b509392505050565b600082601f8301126200078e576200078d620005f6565b5b8151620007a08482602086016200072b565b91505092915050565b6000620007c0620007ba8462000690565b62000671565b90508083825260208201905060208402830185811115620007e657620007e5620006bf565b5b835b818110156200083457805167ffffffffffffffff8111156200080f576200080e620005f6565b5b8086016200081e898262000776565b85526020850194505050602081019050620007e8565b5050509392505050565b600082601f830112620008565762000855620005f6565b5b815162000868848260208601620007a9565b91505092915050565b600067ffffffffffffffff8211156200088f576200088e6200060c565b5b602082029050602081019050919050565b6000819050919050565b620008b581620008a0565b8114620008c157600080fd5b50565b600081519050620008d581620008aa565b92915050565b6000620008f2620008ec8462000871565b62000671565b90508083825260208201905060208402830185811115620009185762000917620006bf565b5b835b81811015620009455780620009308882620008c4565b8452602084019350506020810190506200091a565b5050509392505050565b600082601f830112620009675762000966620005f6565b5b815162000979848260208601620008db565b91505092915050565b600080600080600080600080610100898b031215620009a657620009a5620005ec565b5b600089015167ffffffffffffffff811115620009c757620009c6620005f1565b5b620009d58b828c016200083e565b985050602089015167ffffffffffffffff811115620009f957620009f8620005f1565b5b62000a078b828c016200083e565b975050604089015167ffffffffffffffff81111562000a2b5762000a2a620005f1565b5b62000a398b828c016200094f565b965050606089015167ffffffffffffffff81111562000a5d5762000a5c620005f1565b5b62000a6b8b828c016200094f565b955050608089015167ffffffffffffffff81111562000a8f5762000a8e620005f1565b5b62000a9d8b828c016200083e565b94505060a089015167ffffffffffffffff81111562000ac15762000ac0620005f1565b5b62000acf8b828c016200083e565b93505060c089015167ffffffffffffffff81111562000af35762000af2620005f1565b5b62000b018b828c016200094f565b92505060e089015167ffffffffffffffff81111562000b255762000b24620005f1565b5b62000b338b828c016200094f565b9150509295985092959890939650565b600081519050919050565b7f4e487b7100000000000000000000000000000000000000000000000000000000600052602260045260246000fd5b6000600282049050600182168062000b9657607f821691505b60208210810362000bac5762000bab62000b4e565b5b50919050565b60008190508160005260206000209050919050565b60006020601f8301049050919050565b600082821b905092915050565b60006008830262000c167fffffffffffffffffffffffffffffffffffffffffffffffffffffffffffffffff8262000bd7565b62000c22868362000bd7565b95508019841693508086168417925050509392505050565b6000819050919050565b600062000c6562000c5f62000c5984620008a0565b62000c3a565b620008a0565b9050919050565b6000819050919050565b62000c818362000c44565b62000c9962000c908262000c6c565b84845462000be4565b825550505050565b600090565b62000cb062000ca1565b62000cbd81848462000c76565b505050565b5b8181101562000ce55762000cd960008262000ca6565b60018101905062000cc3565b5050565b601f82111562000d345762000cfe8162000bb2565b62000d098462000bc7565b8101602085101562000d19578190505b62000d3162000d288562000bc7565b83018262000cc2565b50505b505050565b600082821c905092915050565b600062000d596000198460080262000d39565b1980831691505092915050565b600062000d74838362000d46565b9150826002028217905092915050565b62000d8f8262000b43565b67ffffffffffffffff81111562000dab5762000daa6200060c565b5b62000db7825462000b7d565b62000dc482828562000ce9565b600060209050601f83116001811462000dfc576000841562000de7578287015190505b62000df3858262000d66565b86555062000e63565b601f19841662000e0c8662000bb2565b60005b8281101562000e365784890151825560018201915060208501945060208101905062000e0f565b8683101562000e56578489015162000e52601f89168262000d46565b8355505b6001600288020188555050505b505050505050565b7f4e487b7100000000000000000000000000000000000000000000000000000000600052603260045260246000fd5b6000819050919050565b62000eb962000eb382620008a0565b62000e9a565b82525050565b600062000ecd828562000ea4565b60208201915062000edf828462000ea4565b6020820191508190509392505050565b7f4e487b7100000000000000000000000000000000000000000000000000000000600052601260045260246000fd5b60008154905062000f2f8162000b7d565b9050919050565b81810362000f4657505062001035565b62000f518262000f1e565b67ffffffffffffffff81111562000f6d5762000f6c6200060c565b5b62000f79825462000b7d565b62000f8682828562000ce9565b6000601f83116001811462000fba576000841562000fa5578287015490505b62000fb1858262000d66565b8655506200102e565b601f19841662000fca8762000bb2565b965062000fd78662000bb2565b60005b82811015620010015784890154825560018201915060018501945060208101905062000fda565b868310156200102157848901546200101d601f89168262000d46565b8355505b6001600288020188555050505b5050505050505b565b600082825260208201905092915050565b6000620010558262000b43565b62001061818562001037565b935062001073818560208601620006ff565b6200107e81620005fb565b840191505092915050565b60006020820190508181036000830152620010a5818462001048565b905092915050565b61449380620010bd6000396000f3fe608060405234801561001057600080fd5b50600436106101375760003560e01c806395d89b41116100b8578063c0920a941161007c578063c0920a941461034a578063c151159514610368578063c87b56dd14610398578063d4b5d603146103c8578063e985e9c5146103fd578063ee1ff4db1461042d57610137565b806395d89b41146102ba578063a22cb465146102d8578063aef38bd4146102f4578063b88d4fde14610310578063b953084e1461032c57610137565b806323b872dd116100ff57806323b872dd1461020657806339bb0bf81461022257806342842e0e1461023e5780636352211e1461025a57806370a082311461028a57610137565b806301ffc9a71461013c57806306fdde031461016c578063081812fc1461018a578063095ea7b3146101ba5780630d2dfa3c146101d6575b600080fd5b610156600480360381019061015191906129d9565b61044b565b6040516101639190612a21565b60405180910390f35b61017461052d565b6040516101819190612acc565b60405180910390f35b6101a4600480360381019061019f9190612b24565b6105bf565b6040516101b19190612b92565b60405180910390f35b6101d460048036038101906101cf9190612bd9565b610605565b005b6101f060048036038101906101eb9190612c19565b61071c565b6040516101fd9190612a21565b60405180910390f35b610220600480360381019061021b9190612c46565b610777565b005b61023c60048036038101906102379190612cd2565b6107d7565b005b61025860048036038101906102539190612c46565b610a59565b005b610274600480360381019061026f9190612b24565b610a79565b6040516102819190612b92565b60405180910390f35b6102a4600480360381019061029f9190612c19565b610aff565b6040516102b19190612d0e565b60405180910390f35b6102c2610bb6565b6040516102cf9190612acc565b60405180910390f35b6102f260048036038101906102ed9190612d55565b610c48565b005b61030e60048036038101906103099190612b24565b610c5e565b005b61032a60048036038101906103259190612eca565b610cf7565b005b610334610d59565b60405161034191906130f8565b60405180910390f35b610352610f04565b60405161035f91906131aa565b60405180910390f35b610382600480360381019061037d9190612bd9565b61106a565b60405161038f9190612d0e565b60405180910390f35b6103b260048036038101906103ad9190612b24565b61109b565b6040516103bf9190612acc565b60405180910390f35b6103e260048036038101906103dd9190612b24565b6112b6565b6040516103f4969594939291906131cc565b60405180910390f35b6104176004803603810190610412919061323b565b611402565b6040516104249190612a21565b60405180910390f35b610435611496565b604051610442919061332a565b60405180910390f35b60007f80ac58cd000000000000000000000000000000000000000000000000000000007bffffffffffffffffffffffffffffffffffffffffffffffffffffffff1916827bffffffffffffffffffffffffffffffffffffffffffffffffffffffff1916148061051657507f5b5e139f000000000000000000000000000000000000000000000000000000007bffffffffffffffffffffffffffffffffffffffffffffffffffffffff1916827bffffffffffffffffffffffffffffffffffffffffffffffffffffffff1916145b806105265750610525826115da565b5b9050919050565b60606000805461053c9061337b565b80601f01602080910402602001604051908101604052809291908181526020018280546105689061337b565b80156105b55780601f1061058a576101008083540402835291602001916105b5565b820191906000526020600020905b81548152906001019060200180831161059857829003601f168201915b5050505050905090565b60006105ca82611644565b6004600083815260200190815260200160002060009054906101000a900473ffffffffffffffffffffffffffffffffffffffff169050919050565b600061061082610a79565b90508073ffffffffffffffffffffffffffffffffffffffff168373ffffffffffffffffffffffffffffffffffffffff1603610680576040517f08c379a00000000000000000000000000000000000000000000000000000000081526004016106779061341e565b60405180910390fd5b8073ffffffffffffffffffffffffffffffffffffffff1661069f61168f565b73ffffffffffffffffffffffffffffffffffffffff1614806106ce57506106cd816106c861168f565b611402565b5b61070d576040517f08c379a0000000000000000000000000000000000000000000000000000000008152600401610704906134b0565b60405180910390fd5b6107178383611697565b505050565b600080601060008473ffffffffffffffffffffffffffffffffffffffff1673ffffffffffffffffffffffffffffffffffffffff1681526020019081526020016000209050600081805490509050600081141592505050919050565b61078861078261168f565b82611750565b6107c7576040517f08c379a00000000000000000000000000000000000000000000000000000000081526004016107be90613542565b60405180910390fd5b6107d28383836117e5565b505050565b6000601060003373ffffffffffffffffffffffffffffffffffffffff1673ffffffffffffffffffffffffffffffffffffffff16815260200190815260200160002080548060200260200160405190810160405280929190818152602001828054801561086257602002820191906000526020600020905b81548152602001906001019080831161084e575b505050505090508160ff168151116108af576040517f08c379a00000000000000000000000000000000000000000000000000000000081526004016108a6906135ae565b60405180910390fd5b6000818360ff16815181106108c7576108c66135ce565b5b602002602001015190506000600f60008381526020019081526020016000209050600081600301541161092f576040517f08c379a000000000000000000000000000000000000000000000000000000000815260040161092690613649565b60405180910390fd5b600060086003015411610977576040517f08c379a000000000000000000000000000000000000000000000000000000000815260040161096e906136b5565b60405180910390fd5b8060050154600860030154101561099b576000600860030181905550505050610a56565b80600501546008600301546109b09190613704565b6008600301819055506008600501548160030154106109e35760086005015481600301546109de9190613704565b6109e6565b60005b816003018190555060086003015481600301543373ffffffffffffffffffffffffffffffffffffffff167fbcfb3d0af56b3d54985b1a7fdab72e634ea6c430c7143d77492c431bb2081b0c8460000154600860000154604051610a4a929190613738565b60405180910390a45050505b50565b610a7483838360405180602001604052806000815250610cf7565b505050565b600080610a8583611ade565b9050600073ffffffffffffffffffffffffffffffffffffffff168173ffffffffffffffffffffffffffffffffffffffff1603610af6576040517f08c379a0000000000000000000000000000000000000000000000000000000008152600401610aed906137ad565b60405180910390fd5b80915050919050565b60008073ffffffffffffffffffffffffffffffffffffffff168273ffffffffffffffffffffffffffffffffffffffff1603610b6f576040517f08c379a0000000000000000000000000000000000000000000000000000000008152600401610b669061383f565b60405180910390fd5b600360008373ffffffffffffffffffffffffffffffffffffffff1673ffffffffffffffffffffffffffffffffffffffff168152602001908152602001600020549050919050565b606060018054610bc59061337b565b80601f0160208091040260200160405190810160405280929190818152602001828054610bf19061337b565b8015610c3e5780601f10610c1357610100808354040283529160200191610c3e565b820191906000526020600020905b815481529060010190602001808311610c2157829003601f168201915b5050505050905090565b610c5a610c5361168f565b8383611b1b565b5050565b610c673361071c565b15610ca7576040517f08c379a0000000000000000000000000000000000000000000000000000000008152600401610c9e906138ab565b60405180910390fd5b610cb081611c87565b803373ffffffffffffffffffffffffffffffffffffffff167fac5723a3da81e10f32b38b7ea4f240852779f41801a2de2819fc56939313d5c960405160405180910390a350565b610d08610d0261168f565b83611750565b610d47576040517f08c379a0000000000000000000000000000000000000000000000000000000008152600401610d3e90613542565b60405180910390fd5b610d5384848484611f73565b50505050565b60606006805480602002602001604051908101604052809291908181526020016000905b82821015610efb57838290600052602060002090600602016040518060c001604052908160008201548152602001600182018054610dba9061337b565b80601f0160208091040260200160405190810160405280929190818152602001828054610de69061337b565b8015610e335780601f10610e0857610100808354040283529160200191610e33565b820191906000526020600020905b815481529060010190602001808311610e1657829003601f168201915b50505050508152602001600282018054610e4c9061337b565b80601f0160208091040260200160405190810160405280929190818152602001828054610e789061337b565b8015610ec55780601f10610e9a57610100808354040283529160200191610ec5565b820191906000526020600020905b815481529060010190602001808311610ea857829003601f168201915b50505050508152602001600382015481526020016004820154815260200160058201548152505081526020019060010190610d7d565b50505050905090565b610f0c612937565b60086040518060c001604052908160008201548152602001600182018054610f339061337b565b80601f0160208091040260200160405190810160405280929190818152602001828054610f5f9061337b565b8015610fac5780601f10610f8157610100808354040283529160200191610fac565b820191906000526020600020905b815481529060010190602001808311610f8f57829003601f168201915b50505050508152602001600282018054610fc59061337b565b80601f0160208091040260200160405190810160405280929190818152602001828054610ff19061337b565b801561103e5780601f106110135761010080835404028352916020019161103e565b820191906000526020600020905b81548152906001019060200180831161102157829003601f168201915b505050505081526020016003820154815260200160048201548152602001600582015481525050905090565b6010602052816000526040600020818154811061108657600080fd5b90600052602060002001600091509150505481565b60606000600f60008481526020019081526020016000206040518060c0016040529081600082015481526020016001820180546110d79061337b565b80601f01602080910402602001604051908101604052809291908181526020018280546111039061337b565b80156111505780601f1061112557610100808354040283529160200191611150565b820191906000526020600020905b81548152906001019060200180831161113357829003601f168201915b505050505081526020016002820180546111699061337b565b80601f01602080910402602001604051908101604052809291908181526020018280546111959061337b565b80156111e25780601f106111b7576101008083540402835291602001916111e2565b820191906000526020600020905b8154815290600101906020018083116111c557829003601f168201915b5050505050815260200160038201548152602001600482015481526020016005820154815250509050600061121a8260600151611fcf565b9050600061122b8360800151611fcf565b9050600061123c8460a00151611fcf565b90506000611282856020015161125189611fcf565b876040015187878760405160200161126e96959493929190613bd9565b60405160208183030381529060405261209d565b90506000816040516020016112979190613cca565b6040516020818303038152906040529050809650505050505050919050565b600f6020528060005260406000206000915090508060000154908060010180546112df9061337b565b80601f016020809104026020016040519081016040528092919081815260200182805461130b9061337b565b80156113585780601f1061132d57610100808354040283529160200191611358565b820191906000526020600020905b81548152906001019060200180831161133b57829003601f168201915b50505050509080600201805461136d9061337b565b80601f01602080910402602001604051908101604052809291908181526020018280546113999061337b565b80156113e65780601f106113bb576101008083540402835291602001916113e6565b820191906000526020600020905b8154815290600101906020018083116113c957829003601f168201915b5050505050908060030154908060040154908060050154905086565b6000600560008473ffffffffffffffffffffffffffffffffffffffff1673ffffffffffffffffffffffffffffffffffffffff16815260200190815260200160002060008373ffffffffffffffffffffffffffffffffffffffff1673ffffffffffffffffffffffffffffffffffffffff16815260200190815260200160002060009054906101000a900460ff16905092915050565b6060601060003373ffffffffffffffffffffffffffffffffffffffff1673ffffffffffffffffffffffffffffffffffffffff16815260200190815260200160002080548060200260200160405190810160405280929190818152602001828054801561152157602002820191906000526020600020905b81548152602001906001019080831161150d575b5050505050905090565b6001816000016000828254019250508190555050565b6115d7816040516024016115559190612acc565b6040516020818303038152906040527f41304fac000000000000000000000000000000000000000000000000000000007bffffffffffffffffffffffffffffffffffffffffffffffffffffffff19166020820180517bffffffffffffffffffffffffffffffffffffffffffffffffffffffff8381831617835250505050612200565b50565b60007f01ffc9a7000000000000000000000000000000000000000000000000000000007bffffffffffffffffffffffffffffffffffffffffffffffffffffffff1916827bffffffffffffffffffffffffffffffffffffffffffffffffffffffff1916149050919050565b61164d81612229565b61168c576040517f08c379a0000000000000000000000000000000000000000000000000000000008152600401611683906137ad565b60405180910390fd5b50565b600033905090565b816004600083815260200190815260200160002060006101000a81548173ffffffffffffffffffffffffffffffffffffffff021916908373ffffffffffffffffffffffffffffffffffffffff160217905550808273ffffffffffffffffffffffffffffffffffffffff1661170a83610a79565b73ffffffffffffffffffffffffffffffffffffffff167f8c5be1e5ebec7d5bd14f71427d1e84f3dd0314c0f7b2291e5b200ac8c7c3b92560405160405180910390a45050565b60008061175c83610a79565b90508073ffffffffffffffffffffffffffffffffffffffff168473ffffffffffffffffffffffffffffffffffffffff16148061179e575061179d8185611402565b5b806117dc57508373ffffffffffffffffffffffffffffffffffffffff166117c4846105bf565b73ffffffffffffffffffffffffffffffffffffffff16145b91505092915050565b8273ffffffffffffffffffffffffffffffffffffffff1661180582610a79565b73ffffffffffffffffffffffffffffffffffffffff161461185b576040517f08c379a000000000000000000000000000000000000000000000000000000000815260040161185290613d5e565b60405180910390fd5b600073ffffffffffffffffffffffffffffffffffffffff168273ffffffffffffffffffffffffffffffffffffffff16036118ca576040517f08c379a00000000000000000000000000000000000000000000000000000000081526004016118c190613df0565b60405180910390fd5b6118d7838383600161226a565b8273ffffffffffffffffffffffffffffffffffffffff166118f782610a79565b73ffffffffffffffffffffffffffffffffffffffff161461194d576040517f08c379a000000000000000000000000000000000000000000000000000000000815260040161194490613d5e565b60405180910390fd5b6004600082815260200190815260200160002060006101000a81549073ffffffffffffffffffffffffffffffffffffffff02191690556001600360008573ffffffffffffffffffffffffffffffffffffffff1673ffffffffffffffffffffffffffffffffffffffff168152602001908152602001600020600082825403925050819055506001600360008473ffffffffffffffffffffffffffffffffffffffff1673ffffffffffffffffffffffffffffffffffffffff16815260200190815260200160002060008282540192505081905550816002600083815260200190815260200160002060006101000a81548173ffffffffffffffffffffffffffffffffffffffff021916908373ffffffffffffffffffffffffffffffffffffffff160217905550808273ffffffffffffffffffffffffffffffffffffffff168473ffffffffffffffffffffffffffffffffffffffff167fddf252ad1be2c89b69c2b068fc378daa952ba7f163c4a11628f55a4df523b3ef60405160405180910390a4611ad98383836001612390565b505050565b60006002600083815260200190815260200160002060009054906101000a900473ffffffffffffffffffffffffffffffffffffffff169050919050565b8173ffffffffffffffffffffffffffffffffffffffff168373ffffffffffffffffffffffffffffffffffffffff1603611b89576040517f08c379a0000000000000000000000000000000000000000000000000000000008152600401611b8090613e5c565b60405180910390fd5b80600560008573ffffffffffffffffffffffffffffffffffffffff1673ffffffffffffffffffffffffffffffffffffffff16815260200190815260200160002060008473ffffffffffffffffffffffffffffffffffffffff1673ffffffffffffffffffffffffffffffffffffffff16815260200190815260200160002060006101000a81548160ff0219169083151502179055508173ffffffffffffffffffffffffffffffffffffffff168373ffffffffffffffffffffffffffffffffffffffff167f17307eab39ab6107e8899845ad3d59bd9653f200f220920489ca2b5937696c3183604051611c7a9190612a21565b60405180910390a3505050565b6000611c93600e612396565b9050611c9f33826123a4565b601060003373ffffffffffffffffffffffffffffffffffffffff1673ffffffffffffffffffffffffffffffffffffffff1681526020019081526020016000208190806001815401808255809150506001900390600052602060002001600090919091909150556040518060c0016040528083815260200160068481548110611d2a57611d296135ce565b5b90600052602060002090600602016001018054611d469061337b565b80601f0160208091040260200160405190810160405280929190818152602001828054611d729061337b565b8015611dbf5780601f10611d9457610100808354040283529160200191611dbf565b820191906000526020600020905b815481529060010190602001808311611da257829003601f168201915b5050505050815260200160068481548110611ddd57611ddc6135ce565b5b90600052602060002090600602016002018054611df99061337b565b80601f0160208091040260200160405190810160405280929190818152602001828054611e259061337b565b8015611e725780601f10611e4757610100808354040283529160200191611e72565b820191906000526020600020905b815481529060010190602001808311611e5557829003601f168201915b5050505050815260200160068481548110611e9057611e8f6135ce565b5b906000526020600020906006020160030154815260200160068481548110611ebb57611eba6135ce565b5b906000526020600020906006020160040154815260200160068481548110611ee657611ee56135ce565b5b906000526020600020906006020160050154815250600f6000838152602001908152602001600020600082015181600001556020820151816001019081611f2d9190614028565b506040820151816002019081611f439190614028565b50606082015181600301556080820151816004015560a08201518160050155905050611f6f600e61152b565b5050565b611f7e8484846117e5565b611f8a848484846123c2565b611fc9576040517f08c379a0000000000000000000000000000000000000000000000000000000008152600401611fc09061416c565b60405180910390fd5b50505050565b606060006001611fde84612549565b01905060008167ffffffffffffffff811115611ffd57611ffc612d9f565b5b6040519080825280601f01601f19166020018201604052801561202f5781602001600182028036833780820191505090505b509050600082602001820190505b600115612092578080600190039150507f3031323334353637383961626364656600000000000000000000000000000000600a86061a8153600a85816120865761208561418c565b5b0494506000850361203d575b819350505050919050565b606060008251036120bf576040518060200160405280600081525090506121fb565b600060405180606001604052806040815260200161441e60409139905060006003600285516120ee91906141bb565b6120f891906141ef565b60046121049190614220565b67ffffffffffffffff81111561211d5761211c612d9f565b5b6040519080825280601f01601f19166020018201604052801561214f5781602001600182028036833780820191505090505b509050600182016020820185865187015b808210156121bb576003820191508151603f8160121c168501518453600184019350603f81600c1c168501518453600184019350603f8160061c168501518453600184019350603f8116850151845360018401935050612160565b50506003865106600181146121d757600281146121ea576121f2565b603d6001830353603d60028303536121f2565b603d60018303535b50505080925050505b919050565b60008151905060006a636f6e736f6c652e6c6f679050602083016000808483855afa5050505050565b60008073ffffffffffffffffffffffffffffffffffffffff1661224b83611ade565b73ffffffffffffffffffffffffffffffffffffffff1614159050919050565b600181111561238a57600073ffffffffffffffffffffffffffffffffffffffff168473ffffffffffffffffffffffffffffffffffffffff16146122fe5780600360008673ffffffffffffffffffffffffffffffffffffffff1673ffffffffffffffffffffffffffffffffffffffff16815260200190815260200160002060008282546122f69190613704565b925050819055505b600073ffffffffffffffffffffffffffffffffffffffff168373ffffffffffffffffffffffffffffffffffffffff16146123895780600360008573ffffffffffffffffffffffffffffffffffffffff1673ffffffffffffffffffffffffffffffffffffffff168152602001908152602001600020600082825461238191906141bb565b925050819055505b5b50505050565b50505050565b600081600001549050919050565b6123be82826040518060200160405280600081525061269c565b5050565b60006123e38473ffffffffffffffffffffffffffffffffffffffff166126f7565b1561253c578373ffffffffffffffffffffffffffffffffffffffff1663150b7a0261240c61168f565b8786866040518563ffffffff1660e01b815260040161242e94939291906142b7565b6020604051808303816000875af192505050801561246a57506040513d601f19601f820116820180604052508101906124679190614318565b60015b6124ec573d806000811461249a576040519150601f19603f3d011682016040523d82523d6000602084013e61249f565b606091505b5060008151036124e4576040517f08c379a00000000000000000000000000000000000000000000000000000000081526004016124db9061416c565b60405180910390fd5b805181602001fd5b63150b7a0260e01b7bffffffffffffffffffffffffffffffffffffffffffffffffffffffff1916817bffffffffffffffffffffffffffffffffffffffffffffffffffffffff191614915050612541565b600190505b949350505050565b600080600090507a184f03e93ff9f4daa797ed6e38ed64bf6a1f01000000000000000083106125a7577a184f03e93ff9f4daa797ed6e38ed64bf6a1f010000000000000000838161259d5761259c61418c565b5b0492506040810190505b6d04ee2d6d415b85acef810000000083106125e4576d04ee2d6d415b85acef810000000083816125da576125d961418c565b5b0492506020810190505b662386f26fc10000831061261357662386f26fc1000083816126095761260861418c565b5b0492506010810190505b6305f5e100831061263c576305f5e10083816126325761263161418c565b5b0492506008810190505b61271083106126615761271083816126575761265661418c565b5b0492506004810190505b60648310612684576064838161267a5761267961418c565b5b0492506002810190505b600a8310612693576001810190505b80915050919050565b6126a6838361271a565b6126b360008484846123c2565b6126f2576040517f08c379a00000000000000000000000000000000000000000000000000000000081526004016126e99061416c565b60405180910390fd5b505050565b6000808273ffffffffffffffffffffffffffffffffffffffff163b119050919050565b600073ffffffffffffffffffffffffffffffffffffffff168273ffffffffffffffffffffffffffffffffffffffff1603612789576040517f08c379a000000000000000000000000000000000000000000000000000000000815260040161278090614391565b60405180910390fd5b61279281612229565b156127d2576040517f08c379a00000000000000000000000000000000000000000000000000000000081526004016127c9906143fd565b60405180910390fd5b6127e060008383600161226a565b6127e981612229565b15612829576040517f08c379a0000000000000000000000000000000000000000000000000000000008152600401612820906143fd565b60405180910390fd5b6001600360008473ffffffffffffffffffffffffffffffffffffffff1673ffffffffffffffffffffffffffffffffffffffff16815260200190815260200160002060008282540192505081905550816002600083815260200190815260200160002060006101000a81548173ffffffffffffffffffffffffffffffffffffffff021916908373ffffffffffffffffffffffffffffffffffffffff160217905550808273ffffffffffffffffffffffffffffffffffffffff16600073ffffffffffffffffffffffffffffffffffffffff167fddf252ad1be2c89b69c2b068fc378daa952ba7f163c4a11628f55a4df523b3ef60405160405180910390a4612933600083836001612390565b5050565b6040518060c001604052806000815260200160608152602001606081526020016000815260200160008152602001600081525090565b6000604051905090565b600080fd5b600080fd5b60007fffffffff0000000000000000000000000000000000000000000000000000000082169050919050565b6129b681612981565b81146129c157600080fd5b50565b6000813590506129d3816129ad565b92915050565b6000602082840312156129ef576129ee612977565b5b60006129fd848285016129c4565b91505092915050565b60008115159050919050565b612a1b81612a06565b82525050565b6000602082019050612a366000830184612a12565b92915050565b600081519050919050565b600082825260208201905092915050565b60005b83811015612a76578082015181840152602081019050612a5b565b60008484015250505050565b6000601f19601f8301169050919050565b6000612a9e82612a3c565b612aa88185612a47565b9350612ab8818560208601612a58565b612ac181612a82565b840191505092915050565b60006020820190508181036000830152612ae68184612a93565b905092915050565b6000819050919050565b612b0181612aee565b8114612b0c57600080fd5b50565b600081359050612b1e81612af8565b92915050565b600060208284031215612b3a57612b39612977565b5b6000612b4884828501612b0f565b91505092915050565b600073ffffffffffffffffffffffffffffffffffffffff82169050919050565b6000612b7c82612b51565b9050919050565b612b8c81612b71565b82525050565b6000602082019050612ba76000830184612b83565b92915050565b612bb681612b71565b8114612bc157600080fd5b50565b600081359050612bd381612bad565b92915050565b60008060408385031215612bf057612bef612977565b5b6000612bfe85828601612bc4565b9250506020612c0f85828601612b0f565b9150509250929050565b600060208284031215612c2f57612c2e612977565b5b6000612c3d84828501612bc4565b91505092915050565b600080600060608486031215612c5f57612c5e612977565b5b6000612c6d86828701612bc4565b9350506020612c7e86828701612bc4565b9250506040612c8f86828701612b0f565b9150509250925092565b600060ff82169050919050565b612caf81612c99565b8114612cba57600080fd5b50565b600081359050612ccc81612ca6565b92915050565b600060208284031215612ce857612ce7612977565b5b6000612cf684828501612cbd565b91505092915050565b612d0881612aee565b82525050565b6000602082019050612d236000830184612cff565b92915050565b612d3281612a06565b8114612d3d57600080fd5b50565b600081359050612d4f81612d29565b92915050565b60008060408385031215612d6c57612d6b612977565b5b6000612d7a85828601612bc4565b9250506020612d8b85828601612d40565b9150509250929050565b600080fd5b600080fd5b7f4e487b7100000000000000000000000000000000000000000000000000000000600052604160045260246000fd5b612dd782612a82565b810181811067ffffffffffffffff82111715612df657612df5612d9f565b5b80604052505050565b6000612e0961296d565b9050612e158282612dce565b919050565b600067ffffffffffffffff821115612e3557612e34612d9f565b5b612e3e82612a82565b9050602081019050919050565b82818337600083830152505050565b6000612e6d612e6884612e1a565b612dff565b905082815260208101848484011115612e8957612e88612d9a565b5b612e94848285612e4b565b509392505050565b600082601f830112612eb157612eb0612d95565b5b8135612ec1848260208601612e5a565b91505092915050565b60008060008060808587031215612ee457612ee3612977565b5b6000612ef287828801612bc4565b9450506020612f0387828801612bc4565b9350506040612f1487828801612b0f565b925050606085013567ffffffffffffffff811115612f3557612f3461297c565b5b612f4187828801612e9c565b91505092959194509250565b600081519050919050565b600082825260208201905092915050565b6000819050602082019050919050565b612f8281612aee565b82525050565b600082825260208201905092915050565b6000612fa482612a3c565b612fae8185612f88565b9350612fbe818560208601612a58565b612fc781612a82565b840191505092915050565b600060c083016000830151612fea6000860182612f79565b50602083015184820360208601526130028282612f99565b9150506040830151848203604086015261301c8282612f99565b91505060608301516130316060860182612f79565b5060808301516130446080860182612f79565b5060a083015161305760a0860182612f79565b508091505092915050565b600061306e8383612fd2565b905092915050565b6000602082019050919050565b600061308e82612f4d565b6130988185612f58565b9350836020820285016130aa85612f69565b8060005b858110156130e657848403895281516130c78582613062565b94506130d283613076565b925060208a019950506001810190506130ae565b50829750879550505050505092915050565b600060208201905081810360008301526131128184613083565b905092915050565b600060c0830160008301516131326000860182612f79565b506020830151848203602086015261314a8282612f99565b915050604083015184820360408601526131648282612f99565b91505060608301516131796060860182612f79565b50608083015161318c6080860182612f79565b5060a083015161319f60a0860182612f79565b508091505092915050565b600060208201905081810360008301526131c4818461311a565b905092915050565b600060c0820190506131e16000830189612cff565b81810360208301526131f38188612a93565b905081810360408301526132078187612a93565b90506132166060830186612cff565b6132236080830185612cff565b61323060a0830184612cff565b979650505050505050565b6000806040838503121561325257613251612977565b5b600061326085828601612bc4565b925050602061327185828601612bc4565b9150509250929050565b600081519050919050565b600082825260208201905092915050565b6000819050602082019050919050565b60006132b38383612f79565b60208301905092915050565b6000602082019050919050565b60006132d78261327b565b6132e18185613286565b93506132ec83613297565b8060005b8381101561331d57815161330488826132a7565b975061330f836132bf565b9250506001810190506132f0565b5085935050505092915050565b6000602082019050818103600083015261334481846132cc565b905092915050565b7f4e487b7100000000000000000000000000000000000000000000000000000000600052602260045260246000fd5b6000600282049050600182168061339357607f821691505b6020821081036133a6576133a561334c565b5b50919050565b7f4552433732313a20617070726f76616c20746f2063757272656e74206f776e6560008201527f7200000000000000000000000000000000000000000000000000000000000000602082015250565b6000613408602183612a47565b9150613413826133ac565b604082019050919050565b60006020820190508181036000830152613437816133fb565b9050919050565b7f4552433732313a20617070726f76652063616c6c6572206973206e6f7420746f60008201527f6b656e206f776e6572206f7220617070726f76656420666f7220616c6c000000602082015250565b600061349a603d83612a47565b91506134a58261343e565b604082019050919050565b600060208201905081810360008301526134c98161348d565b9050919050565b7f4552433732313a2063616c6c6572206973206e6f7420746f6b656e206f776e6560008201527f72206f7220617070726f76656400000000000000000000000000000000000000602082015250565b600061352c602d83612a47565b9150613537826134d0565b604082019050919050565b6000602082019050818103600083015261355b8161351f565b9050919050565b7f6572726f72000000000000000000000000000000000000000000000000000000600082015250565b6000613598600583612a47565b91506135a382613562565b602082019050919050565b600060208201905081810360008301526135c78161358b565b9050919050565b7f4e487b7100000000000000000000000000000000000000000000000000000000600052603260045260246000fd5b7f636861726163746572206d757374206861766520485000000000000000000000600082015250565b6000613633601683612a47565b915061363e826135fd565b602082019050919050565b6000602082019050818103600083015261366281613626565b9050919050565b7f626f7373206d7573742068617665204850000000000000000000000000000000600082015250565b600061369f601183612a47565b91506136aa82613669565b602082019050919050565b600060208201905081810360008301526136ce81613692565b9050919050565b7f4e487b7100000000000000000000000000000000000000000000000000000000600052601160045260246000fd5b600061370f82612aee565b915061371a83612aee565b9250828203905081811115613732576137316136d5565b5b92915050565b600060408201905061374d6000830185612cff565b61375a6020830184612cff565b9392505050565b7f4552433732313a20696e76616c696420746f6b656e2049440000000000000000600082015250565b6000613797601883612a47565b91506137a282613761565b602082019050919050565b600060208201905081810360008301526137c68161378a565b9050919050565b7f4552433732313a2061646472657373207a65726f206973206e6f74206120766160008201527f6c6964206f776e65720000000000000000000000000000000000000000000000602082015250565b6000613829602983612a47565b9150613834826137cd565b604082019050919050565b600060208201905081810360008301526138588161381c565b9050919050565b7f416c726561647920637265617465640000000000000000000000000000000000600082015250565b6000613895600f83612a47565b91506138a08261385f565b602082019050919050565b600060208201905081810360008301526138c481613888565b9050919050565b600081905092915050565b7f7b226e616d65223a202200000000000000000000000000000000000000000000600082015250565b600061390c600a836138cb565b9150613917826138d6565b600a82019050919050565b600061392d82612a3c565b61393781856138cb565b9350613947818560208601612a58565b80840191505092915050565b7f202d2d204e465420233a20000000000000000000000000000000000000000000600082015250565b6000613989600b836138cb565b915061399482613953565b600b82019050919050565b7f222c20226465736372697074696f6e223a20225468697320697320616e204e4660008201527f542074686174206c6574732070656f706c6520706c617920696e20746865206760208201527f616d65204d657461766572736520536c6179657221222c2022696d616765223a60408201527f2022000000000000000000000000000000000000000000000000000000000000606082015250565b6000613a476062836138cb565b9150613a528261399f565b606282019050919050565b7f222c202261747472696275746573223a205b207b202274726169745f7479706560008201527f223a20224865616c746820506f696e7473222c202276616c7565223a20000000602082015250565b6000613ab9603d836138cb565b9150613ac482613a5d565b603d82019050919050565b7f2c20226d61785f76616c7565223a000000000000000000000000000000000000600082015250565b6000613b05600e836138cb565b9150613b1082613acf565b600e82019050919050565b7f7d2c207b202274726169745f74797065223a202241747461636b2044616d616760008201527f65222c202276616c7565223a2000000000000000000000000000000000000000602082015250565b6000613b77602d836138cb565b9150613b8282613b1b565b602d82019050919050565b7f7d205d7d00000000000000000000000000000000000000000000000000000000600082015250565b6000613bc36004836138cb565b9150613bce82613b8d565b600482019050919050565b6000613be4826138ff565b9150613bf08289613922565b9150613bfb8261397c565b9150613c078288613922565b9150613c1282613a3a565b9150613c1e8287613922565b9150613c2982613aac565b9150613c358286613922565b9150613c4082613af8565b9150613c4c8285613922565b9150613c5782613b6a565b9150613c638284613922565b9150613c6e82613bb6565b9150819050979650505050505050565b7f646174613a6170706c69636174696f6e2f6a736f6e3b6261736536342c000000600082015250565b6000613cb4601d836138cb565b9150613cbf82613c7e565b601d82019050919050565b6000613cd582613ca7565b9150613ce18284613922565b915081905092915050565b7f4552433732313a207472616e736665722066726f6d20696e636f72726563742060008201527f6f776e6572000000000000000000000000000000000000000000000000000000602082015250565b6000613d48602583612a47565b9150613d5382613cec565b604082019050919050565b60006020820190508181036000830152613d7781613d3b565b9050919050565b7f4552433732313a207472616e7366657220746f20746865207a65726f2061646460008201527f7265737300000000000000000000000000000000000000000000000000000000602082015250565b6000613dda602483612a47565b9150613de582613d7e565b604082019050919050565b60006020820190508181036000830152613e0981613dcd565b9050919050565b7f4552433732313a20617070726f766520746f2063616c6c657200000000000000600082015250565b6000613e46601983612a47565b9150613e5182613e10565b602082019050919050565b60006020820190508181036000830152613e7581613e39565b9050919050565b60008190508160005260206000209050919050565b60006020601f8301049050919050565b600082821b905092915050565b600060088302613ede7fffffffffffffffffffffffffffffffffffffffffffffffffffffffffffffffff82613ea1565b613ee88683613ea1565b95508019841693508086168417925050509392505050565b6000819050919050565b6000613f25613f20613f1b84612aee565b613f00565b612aee565b9050919050565b6000819050919050565b613f3f83613f0a565b613f53613f4b82613f2c565b848454613eae565b825550505050565b600090565b613f68613f5b565b613f73818484613f36565b505050565b5b81811015613f9757613f8c600082613f60565b600181019050613f79565b5050565b601f821115613fdc57613fad81613e7c565b613fb684613e91565b81016020851015613fc5578190505b613fd9613fd185613e91565b830182613f78565b50505b505050565b600082821c905092915050565b6000613fff60001984600802613fe1565b1980831691505092915050565b60006140188383613fee565b9150826002028217905092915050565b61403182612a3c565b67ffffffffffffffff81111561404a57614049612d9f565b5b614054825461337b565b61405f828285613f9b565b600060209050601f8311600181146140925760008415614080578287015190505b61408a858261400c565b8655506140f2565b601f1984166140a086613e7c565b60005b828110156140c8578489015182556001820191506020850194506020810190506140a3565b868310156140e557848901516140e1601f891682613fee565b8355505b6001600288020188555050505b505050505050565b7f4552433732313a207472616e7366657220746f206e6f6e20455243373231526560008201527f63656976657220696d706c656d656e7465720000000000000000000000000000602082015250565b6000614156603283612a47565b9150614161826140fa565b604082019050919050565b6000602082019050818103600083015261418581614149565b9050919050565b7f4e487b7100000000000000000000000000000000000000000000000000000000600052601260045260246000fd5b60006141c682612aee565b91506141d183612aee565b92508282019050808211156141e9576141e86136d5565b5b92915050565b60006141fa82612aee565b915061420583612aee565b9250826142155761421461418c565b5b828204905092915050565b600061422b82612aee565b915061423683612aee565b925082820261424481612aee565b9150828204841483151761425b5761425a6136d5565b5b5092915050565b600081519050919050565b600082825260208201905092915050565b600061428982614262565b614293818561426d565b93506142a3818560208601612a58565b6142ac81612a82565b840191505092915050565b60006080820190506142cc6000830187612b83565b6142d96020830186612b83565b6142e66040830185612cff565b81810360608301526142f8818461427e565b905095945050505050565b600081519050614312816129ad565b92915050565b60006020828403121561432e5761432d612977565b5b600061433c84828501614303565b91505092915050565b7f4552433732313a206d696e7420746f20746865207a65726f2061646472657373600082015250565b600061437b602083612a47565b915061438682614345565b602082019050919050565b600060208201905081810360008301526143aa8161436e565b9050919050565b7f4552433732313a20746f6b656e20616c7265616479206d696e74656400000000600082015250565b60006143e7601c83612a47565b91506143f2826143b1565b602082019050919050565b60006020820190508181036000830152614416816143da565b905091905056fe4142434445464748494a4b4c4d4e4f505152535455565758595a6162636465666768696a6b6c6d6e6f707172737475767778797a303132333435363738392b2fa2646970667358221220323edd01b52b551fc6d07722875000a8ab27eb156bd66f80d55758f3efd1795764736f6c63430008110033",
  "linkReferences": {},
  "deployedLinkReferences": {}
}