{
  "_format": "hh-sol-artifact-1",
  "contractName": "MyNftGame",
  "sourceName": "contracts/MyNftGame.sol",
  "abi": [
    {
      "inputs": [
        {
          "internalType": "string[]",
          "name": "characterNames",
          "type": "string[]"
        },
        {
          "internalType": "string[]",
          "name": "characterImgs",
          "type": "string[]"
        },
        {
          "internalType": "uint256[]",
          "name": "characterMaxHp",
          "type": "uint256[]"
        },
        {
          "internalType": "uint256[]",
          "name": "characterAttackDmg",
          "type": "uint256[]"
        },
        {
          "internalType": "string[]",
          "name": "bossNames",
          "type": "string[]"
        },
        {
          "internalType": "string[]",
          "name": "bossImgs",
          "type": "string[]"
        },
        {
          "internalType": "uint256[]",
          "name": "bossMaxHp",
          "type": "uint256[]"
        },
        {
          "internalType": "uint256[]",
          "name": "bossAttackDmg",
          "type": "uint256[]"
        }
      ],
      "stateMutability": "nonpayable",
      "type": "constructor"
    },
    {
      "anonymous": false,
      "inputs": [
        {
          "indexed": true,
          "internalType": "address",
          "name": "owner",
          "type": "address"
        },
        {
          "indexed": true,
          "internalType": "address",
          "name": "approved",
          "type": "address"
        },
        {
          "indexed": true,
          "internalType": "uint256",
          "name": "tokenId",
          "type": "uint256"
        }
      ],
      "name": "Approval",
      "type": "event"
    },
    {
      "anonymous": false,
      "inputs": [
        {
          "indexed": true,
          "internalType": "address",
          "name": "owner",
          "type": "address"
        },
        {
          "indexed": true,
          "internalType": "address",
          "name": "operator",
          "type": "address"
        },
        {
          "indexed": false,
          "internalType": "bool",
          "name": "approved",
          "type": "bool"
        }
      ],
      "name": "ApprovalForAll",
      "type": "event"
    },
    {
      "anonymous": false,
      "inputs": [
        {
          "indexed": true,
          "internalType": "address",
          "name": "addr",
          "type": "address"
        },
        {
          "indexed": false,
          "internalType": "uint256",
          "name": "characterIndex",
          "type": "uint256"
        },
        {
          "indexed": true,
          "internalType": "uint256",
          "name": "characterHp",
          "type": "uint256"
        },
        {
          "indexed": false,
          "internalType": "uint256",
          "name": "bossIndex",
          "type": "uint256"
        },
        {
          "indexed": true,
          "internalType": "uint256",
          "name": "bossHp",
          "type": "uint256"
        }
      ],
      "name": "AttackComplete",
      "type": "event"
    },
    {
      "anonymous": false,
      "inputs": [
        {
          "indexed": true,
          "internalType": "address",
          "name": "addr",
          "type": "address"
        },
        {
          "indexed": true,
          "internalType": "uint256",
          "name": "characterIndex",
          "type": "uint256"
        }
      ],
      "name": "CreateCharacter",
      "type": "event"
    },
    {
      "anonymous": false,
      "inputs": [
        {
          "indexed": true,
          "internalType": "address",
          "name": "from",
          "type": "address"
        },
        {
          "indexed": true,
          "internalType": "address",
          "name": "to",
          "type": "address"
        },
        {
          "indexed": true,
          "internalType": "uint256",
          "name": "tokenId",
          "type": "uint256"
        }
      ],
      "name": "Transfer",
      "type": "event"
    },
    {
      "inputs": [
        {
          "internalType": "address",
          "name": "to",
          "type": "address"
        },
        {
          "internalType": "uint256",
          "name": "tokenId",
          "type": "uint256"
        }
      ],
      "name": "approve",
      "outputs": [],
      "stateMutability": "nonpayable",
      "type": "function"
    },
    {
      "inputs": [
        {
          "internalType": "uint256",
          "name": "tokenId",
          "type": "uint256"
        }
      ],
      "name": "attackBoss",
      "outputs": [],
      "stateMutability": "nonpayable",
      "type": "function"
    },
    {
      "inputs": [
        {
          "internalType": "address",
          "name": "owner",
          "type": "address"
        }
      ],
      "name": "balanceOf",
      "outputs": [
        {
          "internalType": "uint256",
          "name": "",
          "type": "uint256"
        }
      ],
      "stateMutability": "view",
      "type": "function"
    },
    {
      "inputs": [
        {
          "internalType": "uint256",
          "name": "tokenId",
          "type": "uint256"
        }
      ],
      "name": "checkIfUserHasExactNft",
      "outputs": [
        {
          "internalType": "bool",
          "name": "",
          "type": "bool"
        }
      ],
      "stateMutability": "view",
      "type": "function"
    },
    {
      "inputs": [
        {
          "internalType": "address",
          "name": "account",
          "type": "address"
        }
      ],
      "name": "checkIfUserHasNft",
      "outputs": [
        {
          "internalType": "bool",
          "name": "",
          "type": "bool"
        }
      ],
      "stateMutability": "view",
      "type": "function"
    },
    {
      "inputs": [
        {
          "internalType": "uint256",
          "name": "_characterIndex",
          "type": "uint256"
        }
      ],
      "name": "createCharacter",
      "outputs": [],
      "stateMutability": "nonpayable",
      "type": "function"
    },
    {
      "inputs": [],
      "name": "getAllDefaultCharacters",
      "outputs": [
        {
          "components": [
            {
              "internalType": "uint256",
              "name": "characterIndex",
              "type": "uint256"
            },
            {
              "internalType": "string",
              "name": "name",
              "type": "string"
            },
            {
              "internalType": "string",
              "name": "imgURI",
              "type": "string"
            },
            {
              "internalType": "uint256",
              "name": "hp",
              "type": "uint256"
            },
            {
              "internalType": "uint256",
              "name": "maxHp",
              "type": "uint256"
            },
            {
              "internalType": "uint256",
              "name": "attackDamage",
              "type": "uint256"
            }
          ],
          "internalType": "struct MyNftGame.CharacterAttributes[]",
          "name": "",
          "type": "tuple[]"
        }
      ],
      "stateMutability": "view",
      "type": "function"
    },
    {
      "inputs": [
        {
          "internalType": "uint256",
          "name": "tokenId",
          "type": "uint256"
        }
      ],
      "name": "getApproved",
      "outputs": [
        {
          "internalType": "address",
          "name": "",
          "type": "address"
        }
      ],
      "stateMutability": "view",
      "type": "function"
    },
    {
      "inputs": [],
      "name": "getCharacters",
      "outputs": [
        {
          "internalType": "uint256[]",
          "name": "",
          "type": "uint256[]"
        }
      ],
      "stateMutability": "view",
      "type": "function"
    },
    {
      "inputs": [],
      "name": "getCurrentBoss",
      "outputs": [
        {
          "components": [
            {
              "internalType": "uint256",
              "name": "bossIndex",
              "type": "uint256"
            },
            {
              "internalType": "string",
              "name": "name",
              "type": "string"
            },
            {
              "internalType": "string",
              "name": "imgURI",
              "type": "string"
            },
            {
              "internalType": "uint256",
              "name": "hp",
              "type": "uint256"
            },
            {
              "internalType": "uint256",
              "name": "maxHp",
              "type": "uint256"
            },
            {
              "internalType": "uint256",
              "name": "attackDamage",
              "type": "uint256"
            }
          ],
          "internalType": "struct MyNftGame.BossAttributes",
          "name": "",
          "type": "tuple"
        }
      ],
      "stateMutability": "view",
      "type": "function"
    },
    {
      "inputs": [
        {
          "internalType": "address",
          "name": "owner",
          "type": "address"
        },
        {
          "internalType": "address",
          "name": "operator",
          "type": "address"
        }
      ],
      "name": "isApprovedForAll",
      "outputs": [
        {
          "internalType": "bool",
          "name": "",
          "type": "bool"
        }
      ],
      "stateMutability": "view",
      "type": "function"
    },
    {
      "inputs": [],
      "name": "name",
      "outputs": [
        {
          "internalType": "string",
          "name": "",
          "type": "string"
        }
      ],
      "stateMutability": "view",
      "type": "function"
    },
    {
      "inputs": [
        {
          "internalType": "uint256",
          "name": "",
          "type": "uint256"
        }
      ],
      "name": "nftAttributes",
      "outputs": [
        {
          "internalType": "uint256",
          "name": "characterIndex",
          "type": "uint256"
        },
        {
          "internalType": "string",
          "name": "name",
          "type": "string"
        },
        {
          "internalType": "string",
          "name": "imgURI",
          "type": "string"
        },
        {
          "internalType": "uint256",
          "name": "hp",
          "type": "uint256"
        },
        {
          "internalType": "uint256",
          "name": "maxHp",
          "type": "uint256"
        },
        {
          "internalType": "uint256",
          "name": "attackDamage",
          "type": "uint256"
        }
      ],
      "stateMutability": "view",
      "type": "function"
    },
    {
      "inputs": [
        {
          "internalType": "address",
          "name": "",
          "type": "address"
        },
        {
          "internalType": "uint256",
          "name": "",
          "type": "uint256"
        }
      ],
      "name": "ntfOwned",
      "outputs": [
        {
          "internalType": "uint256",
          "name": "",
          "type": "uint256"
        }
      ],
      "stateMutability": "view",
      "type": "function"
    },
    {
      "inputs": [
        {
          "internalType": "uint256",
          "name": "tokenId",
          "type": "uint256"
        }
      ],
      "name": "ownerOf",
      "outputs": [
        {
          "internalType": "address",
          "name": "",
          "type": "address"
        }
      ],
      "stateMutability": "view",
      "type": "function"
    },
    {
      "inputs": [
        {
          "internalType": "address",
          "name": "from",
          "type": "address"
        },
        {
          "internalType": "address",
          "name": "to",
          "type": "address"
        },
        {
          "internalType": "uint256",
          "name": "tokenId",
          "type": "uint256"
        }
      ],
      "name": "safeTransferFrom",
      "outputs": [],
      "stateMutability": "nonpayable",
      "type": "function"
    },
    {
      "inputs": [
        {
          "internalType": "address",
          "name": "from",
          "type": "address"
        },
        {
          "internalType": "address",
          "name": "to",
          "type": "address"
        },
        {
          "internalType": "uint256",
          "name": "tokenId",
          "type": "uint256"
        },
        {
          "internalType": "bytes",
          "name": "data",
          "type": "bytes"
        }
      ],
      "name": "safeTransferFrom",
      "outputs": [],
      "stateMutability": "nonpayable",
      "type": "function"
    },
    {
      "inputs": [
        {
          "internalType": "address",
          "name": "operator",
          "type": "address"
        },
        {
          "internalType": "bool",
          "name": "approved",
          "type": "bool"
        }
      ],
      "name": "setApprovalForAll",
      "outputs": [],
      "stateMutability": "nonpayable",
      "type": "function"
    },
    {
      "inputs": [
        {
          "internalType": "bytes4",
          "name": "interfaceId",
          "type": "bytes4"
        }
      ],
      "name": "supportsInterface",
      "outputs": [
        {
          "internalType": "bool",
          "name": "",
          "type": "bool"
        }
      ],
      "stateMutability": "view",
      "type": "function"
    },
    {
      "inputs": [],
      "name": "symbol",
      "outputs": [
        {
          "internalType": "string",
          "name": "",
          "type": "string"
        }
      ],
      "stateMutability": "view",
      "type": "function"
    },
    {
      "inputs": [
        {
          "internalType": "uint256",
          "name": "__tokenId",
          "type": "uint256"
        }
      ],
      "name": "tokenURI",
      "outputs": [
        {
          "internalType": "string",
          "name": "",
          "type": "string"
        }
      ],
      "stateMutability": "view",
      "type": "function"
    },
    {
      "inputs": [
        {
          "internalType": "address",
          "name": "from",
          "type": "address"
        },
        {
          "internalType": "address",
          "name": "to",
          "type": "address"
        },
        {
          "internalType": "uint256",
          "name": "tokenId",
          "type": "uint256"
        }
      ],
      "name": "transferFrom",
      "outputs": [],
      "stateMutability": "nonpayable",
      "type": "function"
    }
  ],
  "bytecode": "0x60806040523480156200001157600080fd5b50604051620055a1380380620055a1833981810160405281019062000037919062000982565b6040518060400160405280600681526020017f4865726f657300000000000000000000000000000000000000000000000000008152506040518060400160405280600481526020017f4865726f000000000000000000000000000000000000000000000000000000008152508160009081620000b4919062000d84565b508060019081620000c6919062000d84565b50505060005b8851811015620003685760066040518060c001604052808381526020018b8481518110620000ff57620000fe62000e6b565b5b602002602001015181526020018a848151811062000122576200012162000e6b565b5b6020026020010151815260200189848151811062000145576200014462000e6b565b5b6020026020010151815260200189848151811062000168576200016762000e6b565b5b602002602001015181526020018884815181106200018b576200018a62000e6b565b5b60200260200101518152509080600181540180825580915050600190039060005260206000209060060201600090919091909150600082015181600001556020820151816001019081620001e0919062000d84565b506040820151816002019081620001f8919062000d84565b50606082015181600301556080820151816004015560a08201518160050155505060076040518060c0016040528083815260200187848151811062000242576200024162000e6b565b5b6020026020010151815260200186848151811062000265576200026462000e6b565b5b6020026020010151815260200185848151811062000288576200028762000e6b565b5b60200260200101518152602001858481518110620002ab57620002aa62000e6b565b5b60200260200101518152602001848481518110620002ce57620002cd62000e6b565b5b6020026020010151815250908060018154018082558091505060019003906000526020600020906006020160009091909190915060008201518160000155602082015181600101908162000323919062000d84565b5060408201518160020190816200033b919062000d84565b50606082015181600301556080820151816004015560a082015181600501555050600181019050620000cc565b6200037f600e6200050060201b6200159a1760201c565b6000600343446040516020016200039892919062000ebf565b6040516020818303038152906040528051906020012060001c81620003c257620003c162000eef565b5b06905060078181548110620003dc57620003db62000e6b565b5b9060005260206000209060060201600860008201548160000155600182018160010190816200040c919062000f36565b506002820181600201908162000423919062000f36565b50600382015481600301556004820154816004015560058201548160050155905050620004f0600860010180546200045b9062000b7d565b80601f0160208091040260200160405190810160405280929190818152602001828054620004899062000b7d565b8015620004da5780601f10620004ae57610100808354040283529160200191620004da565b820191906000526020600020905b815481529060010190602001808311620004bc57829003601f168201915b50505050506200051660201b620015b01760201c565b50505050505050505050620010ad565b6001816000016000828254019250508190555050565b620005b6816040516024016200052d919062001089565b6040516020818303038152906040527f41304fac000000000000000000000000000000000000000000000000000000007bffffffffffffffffffffffffffffffffffffffffffffffffffffffff19166020820180517bffffffffffffffffffffffffffffffffffffffffffffffffffffffff8381831617835250505050620005b960201b60201c565b50565b60008151905060006a636f6e736f6c652e6c6f679050602083016000808483855afa5050505050565b6000604051905090565b600080fd5b600080fd5b600080fd5b6000601f19601f8301169050919050565b7f4e487b7100000000000000000000000000000000000000000000000000000000600052604160045260246000fd5b6200064682620005fb565b810181811067ffffffffffffffff821117156200066857620006676200060c565b5b80604052505050565b60006200067d620005e2565b90506200068b82826200063b565b919050565b600067ffffffffffffffff821115620006ae57620006ad6200060c565b5b602082029050602081019050919050565b600080fd5b600080fd5b600067ffffffffffffffff821115620006e757620006e66200060c565b5b620006f282620005fb565b9050602081019050919050565b60005b838110156200071f57808201518184015260208101905062000702565b60008484015250505050565b6000620007426200073c84620006c9565b62000671565b905082815260208101848484011115620007615762000760620006c4565b5b6200076e848285620006ff565b509392505050565b600082601f8301126200078e576200078d620005f6565b5b8151620007a08482602086016200072b565b91505092915050565b6000620007c0620007ba8462000690565b62000671565b90508083825260208201905060208402830185811115620007e657620007e5620006bf565b5b835b818110156200083457805167ffffffffffffffff8111156200080f576200080e620005f6565b5b8086016200081e898262000776565b85526020850194505050602081019050620007e8565b5050509392505050565b600082601f830112620008565762000855620005f6565b5b815162000868848260208601620007a9565b91505092915050565b600067ffffffffffffffff8211156200088f576200088e6200060c565b5b602082029050602081019050919050565b6000819050919050565b620008b581620008a0565b8114620008c157600080fd5b50565b600081519050620008d581620008aa565b92915050565b6000620008f2620008ec8462000871565b62000671565b90508083825260208201905060208402830185811115620009185762000917620006bf565b5b835b81811015620009455780620009308882620008c4565b8452602084019350506020810190506200091a565b5050509392505050565b600082601f830112620009675762000966620005f6565b5b815162000979848260208601620008db565b91505092915050565b600080600080600080600080610100898b031215620009a657620009a5620005ec565b5b600089015167ffffffffffffffff811115620009c757620009c6620005f1565b5b620009d58b828c016200083e565b985050602089015167ffffffffffffffff811115620009f957620009f8620005f1565b5b62000a078b828c016200083e565b975050604089015167ffffffffffffffff81111562000a2b5762000a2a620005f1565b5b62000a398b828c016200094f565b965050606089015167ffffffffffffffff81111562000a5d5762000a5c620005f1565b5b62000a6b8b828c016200094f565b955050608089015167ffffffffffffffff81111562000a8f5762000a8e620005f1565b5b62000a9d8b828c016200083e565b94505060a089015167ffffffffffffffff81111562000ac15762000ac0620005f1565b5b62000acf8b828c016200083e565b93505060c089015167ffffffffffffffff81111562000af35762000af2620005f1565b5b62000b018b828c016200094f565b92505060e089015167ffffffffffffffff81111562000b255762000b24620005f1565b5b62000b338b828c016200094f565b9150509295985092959890939650565b600081519050919050565b7f4e487b7100000000000000000000000000000000000000000000000000000000600052602260045260246000fd5b6000600282049050600182168062000b9657607f821691505b60208210810362000bac5762000bab62000b4e565b5b50919050565b60008190508160005260206000209050919050565b60006020601f8301049050919050565b600082821b905092915050565b60006008830262000c167fffffffffffffffffffffffffffffffffffffffffffffffffffffffffffffffff8262000bd7565b62000c22868362000bd7565b95508019841693508086168417925050509392505050565b6000819050919050565b600062000c6562000c5f62000c5984620008a0565b62000c3a565b620008a0565b9050919050565b6000819050919050565b62000c818362000c44565b62000c9962000c908262000c6c565b84845462000be4565b825550505050565b600090565b62000cb062000ca1565b62000cbd81848462000c76565b505050565b5b8181101562000ce55762000cd960008262000ca6565b60018101905062000cc3565b5050565b601f82111562000d345762000cfe8162000bb2565b62000d098462000bc7565b8101602085101562000d19578190505b62000d3162000d288562000bc7565b83018262000cc2565b50505b505050565b600082821c905092915050565b600062000d596000198460080262000d39565b1980831691505092915050565b600062000d74838362000d46565b9150826002028217905092915050565b62000d8f8262000b43565b67ffffffffffffffff81111562000dab5762000daa6200060c565b5b62000db7825462000b7d565b62000dc482828562000ce9565b600060209050601f83116001811462000dfc576000841562000de7578287015190505b62000df3858262000d66565b86555062000e63565b601f19841662000e0c8662000bb2565b60005b8281101562000e365784890151825560018201915060208501945060208101905062000e0f565b8683101562000e56578489015162000e52601f89168262000d46565b8355505b6001600288020188555050505b505050505050565b7f4e487b7100000000000000000000000000000000000000000000000000000000600052603260045260246000fd5b6000819050919050565b62000eb962000eb382620008a0565b62000e9a565b82525050565b600062000ecd828562000ea4565b60208201915062000edf828462000ea4565b6020820191508190509392505050565b7f4e487b7100000000000000000000000000000000000000000000000000000000600052601260045260246000fd5b60008154905062000f2f8162000b7d565b9050919050565b81810362000f4657505062001035565b62000f518262000f1e565b67ffffffffffffffff81111562000f6d5762000f6c6200060c565b5b62000f79825462000b7d565b62000f8682828562000ce9565b6000601f83116001811462000fba576000841562000fa5578287015490505b62000fb1858262000d66565b8655506200102e565b601f19841662000fca8762000bb2565b965062000fd78662000bb2565b60005b82811015620010015784890154825560018201915060018501945060208101905062000fda565b868310156200102157848901546200101d601f89168262000d46565b8355505b6001600288020188555050505b5050505050505b565b600082825260208201905092915050565b6000620010558262000b43565b62001061818562001037565b935062001073818560208601620006ff565b6200107e81620005fb565b840191505092915050565b60006020820190508181036000830152620010a5818462001048565b905092915050565b6144e480620010bd6000396000f3fe608060405234801561001057600080fd5b50600436106101425760003560e01c8063a22cb465116100b8578063c15115951161007c578063c151159514610373578063c87b56dd146103a3578063d4b5d603146103d3578063e985e9c514610408578063ee1ff4db14610438578063f1b330301461045657610142565b8063a22cb465146102e3578063aef38bd4146102ff578063b88d4fde1461031b578063b953084e14610337578063c0920a941461035557610142565b80630d2dfa3c1161010a5780630d2dfa3c146101fd57806323b872dd1461022d57806342842e0e146102495780636352211e1461026557806370a082311461029557806395d89b41146102c557610142565b806301ffc9a7146101475780630619f9321461017757806306fdde0314610193578063081812fc146101b1578063095ea7b3146101e1575b600080fd5b610161600480360381019061015c9190612a48565b610486565b60405161016e9190612a90565b60405180910390f35b610191600480360381019061018c9190612ae1565b610568565b005b61019b610734565b6040516101a89190612b9e565b60405180910390f35b6101cb60048036038101906101c69190612ae1565b6107c6565b6040516101d89190612c01565b60405180910390f35b6101fb60048036038101906101f69190612c48565b61080c565b005b61021760048036038101906102129190612c88565b610923565b6040516102249190612a90565b60405180910390f35b61024760048036038101906102429190612cb5565b61097e565b005b610263600480360381019061025e9190612cb5565b6109de565b005b61027f600480360381019061027a9190612ae1565b6109fe565b60405161028c9190612c01565b60405180910390f35b6102af60048036038101906102aa9190612c88565b610a84565b6040516102bc9190612d17565b60405180910390f35b6102cd610b3b565b6040516102da9190612b9e565b60405180910390f35b6102fd60048036038101906102f89190612d5e565b610bcd565b005b61031960048036038101906103149190612ae1565b610be3565b005b61033560048036038101906103309190612ed3565b610c7c565b005b61033f610cde565b60405161034c9190613101565b60405180910390f35b61035d610e89565b60405161036a91906131b3565b60405180910390f35b61038d60048036038101906103889190612c48565b610fef565b60405161039a9190612d17565b60405180910390f35b6103bd60048036038101906103b89190612ae1565b611020565b6040516103ca9190612b9e565b60405180910390f35b6103ed60048036038101906103e89190612ae1565b61123b565b6040516103ff969594939291906131d5565b60405180910390f35b610422600480360381019061041d9190613244565b611387565b60405161042f9190612a90565b60405180910390f35b61044061141b565b60405161044d9190613333565b60405180910390f35b610470600480360381019061046b9190612ae1565b6114b0565b60405161047d9190612a90565b60405180910390f35b60007f80ac58cd000000000000000000000000000000000000000000000000000000007bffffffffffffffffffffffffffffffffffffffffffffffffffffffff1916827bffffffffffffffffffffffffffffffffffffffffffffffffffffffff1916148061055157507f5b5e139f000000000000000000000000000000000000000000000000000000007bffffffffffffffffffffffffffffffffffffffffffffffffffffffff1916827bffffffffffffffffffffffffffffffffffffffffffffffffffffffff1916145b80610561575061056082611649565b5b9050919050565b610571816114b0565b6105b0576040517f08c379a00000000000000000000000000000000000000000000000000000000081526004016105a7906133a1565b60405180910390fd5b6000600f60008381526020019081526020016000209050600081600301541161060e576040517f08c379a00000000000000000000000000000000000000000000000000000000081526004016106059061340d565b60405180910390fd5b600060086003015411610656576040517f08c379a000000000000000000000000000000000000000000000000000000000815260040161064d90613479565b60405180910390fd5b8060050154600860030154101561067857600060086003018190555050610731565b806005015460086003015461068d91906134c8565b6008600301819055506008600501548160030154106106c05760086005015481600301546106bb91906134c8565b6106c3565b60005b816003018190555060086003015481600301543373ffffffffffffffffffffffffffffffffffffffff167fbcfb3d0af56b3d54985b1a7fdab72e634ea6c430c7143d77492c431bb2081b0c84600001546008600001546040516107279291906134fc565b60405180910390a4505b50565b60606000805461074390613554565b80601f016020809104026020016040519081016040528092919081815260200182805461076f90613554565b80156107bc5780601f10610791576101008083540402835291602001916107bc565b820191906000526020600020905b81548152906001019060200180831161079f57829003601f168201915b5050505050905090565b60006107d1826116b3565b6004600083815260200190815260200160002060009054906101000a900473ffffffffffffffffffffffffffffffffffffffff169050919050565b6000610817826109fe565b90508073ffffffffffffffffffffffffffffffffffffffff168373ffffffffffffffffffffffffffffffffffffffff1603610887576040517f08c379a000000000000000000000000000000000000000000000000000000000815260040161087e906135f7565b60405180910390fd5b8073ffffffffffffffffffffffffffffffffffffffff166108a66116fe565b73ffffffffffffffffffffffffffffffffffffffff1614806108d557506108d4816108cf6116fe565b611387565b5b610914576040517f08c379a000000000000000000000000000000000000000000000000000000000815260040161090b90613689565b60405180910390fd5b61091e8383611706565b505050565b600080601060008473ffffffffffffffffffffffffffffffffffffffff1673ffffffffffffffffffffffffffffffffffffffff1681526020019081526020016000209050600081805490509050600081141592505050919050565b61098f6109896116fe565b826117bf565b6109ce576040517f08c379a00000000000000000000000000000000000000000000000000000000081526004016109c59061371b565b60405180910390fd5b6109d9838383611854565b505050565b6109f983838360405180602001604052806000815250610c7c565b505050565b600080610a0a83611b4d565b9050600073ffffffffffffffffffffffffffffffffffffffff168173ffffffffffffffffffffffffffffffffffffffff1603610a7b576040517f08c379a0000000000000000000000000000000000000000000000000000000008152600401610a7290613787565b60405180910390fd5b80915050919050565b60008073ffffffffffffffffffffffffffffffffffffffff168273ffffffffffffffffffffffffffffffffffffffff1603610af4576040517f08c379a0000000000000000000000000000000000000000000000000000000008152600401610aeb90613819565b60405180910390fd5b600360008373ffffffffffffffffffffffffffffffffffffffff1673ffffffffffffffffffffffffffffffffffffffff168152602001908152602001600020549050919050565b606060018054610b4a90613554565b80601f0160208091040260200160405190810160405280929190818152602001828054610b7690613554565b8015610bc35780601f10610b9857610100808354040283529160200191610bc3565b820191906000526020600020905b815481529060010190602001808311610ba657829003601f168201915b5050505050905090565b610bdf610bd86116fe565b8383611b8a565b5050565b610bec33610923565b15610c2c576040517f08c379a0000000000000000000000000000000000000000000000000000000008152600401610c2390613885565b60405180910390fd5b610c3581611cf6565b803373ffffffffffffffffffffffffffffffffffffffff167fac5723a3da81e10f32b38b7ea4f240852779f41801a2de2819fc56939313d5c960405160405180910390a350565b610c8d610c876116fe565b836117bf565b610ccc576040517f08c379a0000000000000000000000000000000000000000000000000000000008152600401610cc39061371b565b60405180910390fd5b610cd884848484611fe2565b50505050565b60606006805480602002602001604051908101604052809291908181526020016000905b82821015610e8057838290600052602060002090600602016040518060c001604052908160008201548152602001600182018054610d3f90613554565b80601f0160208091040260200160405190810160405280929190818152602001828054610d6b90613554565b8015610db85780601f10610d8d57610100808354040283529160200191610db8565b820191906000526020600020905b815481529060010190602001808311610d9b57829003601f168201915b50505050508152602001600282018054610dd190613554565b80601f0160208091040260200160405190810160405280929190818152602001828054610dfd90613554565b8015610e4a5780601f10610e1f57610100808354040283529160200191610e4a565b820191906000526020600020905b815481529060010190602001808311610e2d57829003601f168201915b50505050508152602001600382015481526020016004820154815260200160058201548152505081526020019060010190610d02565b50505050905090565b610e916129a6565b60086040518060c001604052908160008201548152602001600182018054610eb890613554565b80601f0160208091040260200160405190810160405280929190818152602001828054610ee490613554565b8015610f315780601f10610f0657610100808354040283529160200191610f31565b820191906000526020600020905b815481529060010190602001808311610f1457829003601f168201915b50505050508152602001600282018054610f4a90613554565b80601f0160208091040260200160405190810160405280929190818152602001828054610f7690613554565b8015610fc35780601f10610f9857610100808354040283529160200191610fc3565b820191906000526020600020905b815481529060010190602001808311610fa657829003601f168201915b505050505081526020016003820154815260200160048201548152602001600582015481525050905090565b6010602052816000526040600020818154811061100b57600080fd5b90600052602060002001600091509150505481565b60606000600f60008481526020019081526020016000206040518060c00160405290816000820154815260200160018201805461105c90613554565b80601f016020809104026020016040519081016040528092919081815260200182805461108890613554565b80156110d55780601f106110aa576101008083540402835291602001916110d5565b820191906000526020600020905b8154815290600101906020018083116110b857829003601f168201915b505050505081526020016002820180546110ee90613554565b80601f016020809104026020016040519081016040528092919081815260200182805461111a90613554565b80156111675780601f1061113c57610100808354040283529160200191611167565b820191906000526020600020905b81548152906001019060200180831161114a57829003601f168201915b5050505050815260200160038201548152602001600482015481526020016005820154815250509050600061119f826060015161203e565b905060006111b0836080015161203e565b905060006111c18460a0015161203e565b9050600061120785602001516111d68961203e565b87604001518787876040516020016111f396959493929190613bb3565b60405160208183030381529060405261210c565b905060008160405160200161121c9190613ca4565b6040516020818303038152906040529050809650505050505050919050565b600f60205280600052604060002060009150905080600001549080600101805461126490613554565b80601f016020809104026020016040519081016040528092919081815260200182805461129090613554565b80156112dd5780601f106112b2576101008083540402835291602001916112dd565b820191906000526020600020905b8154815290600101906020018083116112c057829003601f168201915b5050505050908060020180546112f290613554565b80601f016020809104026020016040519081016040528092919081815260200182805461131e90613554565b801561136b5780601f106113405761010080835404028352916020019161136b565b820191906000526020600020905b81548152906001019060200180831161134e57829003601f168201915b5050505050908060030154908060040154908060050154905086565b6000600560008473ffffffffffffffffffffffffffffffffffffffff1673ffffffffffffffffffffffffffffffffffffffff16815260200190815260200160002060008373ffffffffffffffffffffffffffffffffffffffff1673ffffffffffffffffffffffffffffffffffffffff16815260200190815260200160002060009054906101000a900460ff16905092915050565b6060601060003373ffffffffffffffffffffffffffffffffffffffff1673ffffffffffffffffffffffffffffffffffffffff1681526020019081526020016000208054806020026020016040519081016040528092919081815260200182805480156114a657602002820191906000526020600020905b815481526020019060010190808311611492575b5050505050905090565b600080601060003373ffffffffffffffffffffffffffffffffffffffff1673ffffffffffffffffffffffffffffffffffffffff16815260200190815260200160002080548060200260200160405190810160405280929190818152602001828054801561153c57602002820191906000526020600020905b815481526020019060010190808311611528575b5050505050905060005b815181101561158e578382828151811061156357611562613cc6565b5b60200260200101510361157b57600192505050611595565b808061158690613cf5565b915050611546565b5060009150505b919050565b6001816000016000828254019250508190555050565b611646816040516024016115c49190612b9e565b6040516020818303038152906040527f41304fac000000000000000000000000000000000000000000000000000000007bffffffffffffffffffffffffffffffffffffffffffffffffffffffff19166020820180517bffffffffffffffffffffffffffffffffffffffffffffffffffffffff838183161783525050505061226f565b50565b60007f01ffc9a7000000000000000000000000000000000000000000000000000000007bffffffffffffffffffffffffffffffffffffffffffffffffffffffff1916827bffffffffffffffffffffffffffffffffffffffffffffffffffffffff1916149050919050565b6116bc81612298565b6116fb576040517f08c379a00000000000000000000000000000000000000000000000000000000081526004016116f290613787565b60405180910390fd5b50565b600033905090565b816004600083815260200190815260200160002060006101000a81548173ffffffffffffffffffffffffffffffffffffffff021916908373ffffffffffffffffffffffffffffffffffffffff160217905550808273ffffffffffffffffffffffffffffffffffffffff16611779836109fe565b73ffffffffffffffffffffffffffffffffffffffff167f8c5be1e5ebec7d5bd14f71427d1e84f3dd0314c0f7b2291e5b200ac8c7c3b92560405160405180910390a45050565b6000806117cb836109fe565b90508073ffffffffffffffffffffffffffffffffffffffff168473ffffffffffffffffffffffffffffffffffffffff16148061180d575061180c8185611387565b5b8061184b57508373ffffffffffffffffffffffffffffffffffffffff16611833846107c6565b73ffffffffffffffffffffffffffffffffffffffff16145b91505092915050565b8273ffffffffffffffffffffffffffffffffffffffff16611874826109fe565b73ffffffffffffffffffffffffffffffffffffffff16146118ca576040517f08c379a00000000000000000000000000000000000000000000000000000000081526004016118c190613daf565b60405180910390fd5b600073ffffffffffffffffffffffffffffffffffffffff168273ffffffffffffffffffffffffffffffffffffffff1603611939576040517f08c379a000000000000000000000000000000000000000000000000000000000815260040161193090613e41565b60405180910390fd5b61194683838360016122d9565b8273ffffffffffffffffffffffffffffffffffffffff16611966826109fe565b73ffffffffffffffffffffffffffffffffffffffff16146119bc576040517f08c379a00000000000000000000000000000000000000000000000000000000081526004016119b390613daf565b60405180910390fd5b6004600082815260200190815260200160002060006101000a81549073ffffffffffffffffffffffffffffffffffffffff02191690556001600360008573ffffffffffffffffffffffffffffffffffffffff1673ffffffffffffffffffffffffffffffffffffffff168152602001908152602001600020600082825403925050819055506001600360008473ffffffffffffffffffffffffffffffffffffffff1673ffffffffffffffffffffffffffffffffffffffff16815260200190815260200160002060008282540192505081905550816002600083815260200190815260200160002060006101000a81548173ffffffffffffffffffffffffffffffffffffffff021916908373ffffffffffffffffffffffffffffffffffffffff160217905550808273ffffffffffffffffffffffffffffffffffffffff168473ffffffffffffffffffffffffffffffffffffffff167fddf252ad1be2c89b69c2b068fc378daa952ba7f163c4a11628f55a4df523b3ef60405160405180910390a4611b4883838360016123ff565b505050565b60006002600083815260200190815260200160002060009054906101000a900473ffffffffffffffffffffffffffffffffffffffff169050919050565b8173ffffffffffffffffffffffffffffffffffffffff168373ffffffffffffffffffffffffffffffffffffffff1603611bf8576040517f08c379a0000000000000000000000000000000000000000000000000000000008152600401611bef90613ead565b60405180910390fd5b80600560008573ffffffffffffffffffffffffffffffffffffffff1673ffffffffffffffffffffffffffffffffffffffff16815260200190815260200160002060008473ffffffffffffffffffffffffffffffffffffffff1673ffffffffffffffffffffffffffffffffffffffff16815260200190815260200160002060006101000a81548160ff0219169083151502179055508173ffffffffffffffffffffffffffffffffffffffff168373ffffffffffffffffffffffffffffffffffffffff167f17307eab39ab6107e8899845ad3d59bd9653f200f220920489ca2b5937696c3183604051611ce99190612a90565b60405180910390a3505050565b6000611d02600e612405565b9050611d0e3382612413565b601060003373ffffffffffffffffffffffffffffffffffffffff1673ffffffffffffffffffffffffffffffffffffffff1681526020019081526020016000208190806001815401808255809150506001900390600052602060002001600090919091909150556040518060c0016040528083815260200160068481548110611d9957611d98613cc6565b5b90600052602060002090600602016001018054611db590613554565b80601f0160208091040260200160405190810160405280929190818152602001828054611de190613554565b8015611e2e5780601f10611e0357610100808354040283529160200191611e2e565b820191906000526020600020905b815481529060010190602001808311611e1157829003601f168201915b5050505050815260200160068481548110611e4c57611e4b613cc6565b5b90600052602060002090600602016002018054611e6890613554565b80601f0160208091040260200160405190810160405280929190818152602001828054611e9490613554565b8015611ee15780601f10611eb657610100808354040283529160200191611ee1565b820191906000526020600020905b815481529060010190602001808311611ec457829003601f168201915b5050505050815260200160068481548110611eff57611efe613cc6565b5b906000526020600020906006020160030154815260200160068481548110611f2a57611f29613cc6565b5b906000526020600020906006020160040154815260200160068481548110611f5557611f54613cc6565b5b906000526020600020906006020160050154815250600f6000838152602001908152602001600020600082015181600001556020820151816001019081611f9c9190614079565b506040820151816002019081611fb29190614079565b50606082015181600301556080820151816004015560a08201518160050155905050611fde600e61159a565b5050565b611fed848484611854565b611ff984848484612431565b612038576040517f08c379a000000000000000000000000000000000000000000000000000000000815260040161202f906141bd565b60405180910390fd5b50505050565b60606000600161204d846125b8565b01905060008167ffffffffffffffff81111561206c5761206b612da8565b5b6040519080825280601f01601f19166020018201604052801561209e5781602001600182028036833780820191505090505b509050600082602001820190505b600115612101578080600190039150507f3031323334353637383961626364656600000000000000000000000000000000600a86061a8153600a85816120f5576120f46141dd565b5b049450600085036120ac575b819350505050919050565b6060600082510361212e5760405180602001604052806000815250905061226a565b600060405180606001604052806040815260200161446f604091399050600060036002855161215d919061420c565b6121679190614240565b60046121739190614271565b67ffffffffffffffff81111561218c5761218b612da8565b5b6040519080825280601f01601f1916602001820160405280156121be5781602001600182028036833780820191505090505b509050600182016020820185865187015b8082101561222a576003820191508151603f8160121c168501518453600184019350603f81600c1c168501518453600184019350603f8160061c168501518453600184019350603f81168501518453600184019350506121cf565b5050600386510660018114612246576002811461225957612261565b603d6001830353603d6002830353612261565b603d60018303535b50505080925050505b919050565b60008151905060006a636f6e736f6c652e6c6f679050602083016000808483855afa5050505050565b60008073ffffffffffffffffffffffffffffffffffffffff166122ba83611b4d565b73ffffffffffffffffffffffffffffffffffffffff1614159050919050565b60018111156123f957600073ffffffffffffffffffffffffffffffffffffffff168473ffffffffffffffffffffffffffffffffffffffff161461236d5780600360008673ffffffffffffffffffffffffffffffffffffffff1673ffffffffffffffffffffffffffffffffffffffff168152602001908152602001600020600082825461236591906134c8565b925050819055505b600073ffffffffffffffffffffffffffffffffffffffff168373ffffffffffffffffffffffffffffffffffffffff16146123f85780600360008573ffffffffffffffffffffffffffffffffffffffff1673ffffffffffffffffffffffffffffffffffffffff16815260200190815260200160002060008282546123f0919061420c565b925050819055505b5b50505050565b50505050565b600081600001549050919050565b61242d82826040518060200160405280600081525061270b565b5050565b60006124528473ffffffffffffffffffffffffffffffffffffffff16612766565b156125ab578373ffffffffffffffffffffffffffffffffffffffff1663150b7a0261247b6116fe565b8786866040518563ffffffff1660e01b815260040161249d9493929190614308565b6020604051808303816000875af19250505080156124d957506040513d601f19601f820116820180604052508101906124d69190614369565b60015b61255b573d8060008114612509576040519150601f19603f3d011682016040523d82523d6000602084013e61250e565b606091505b506000815103612553576040517f08c379a000000000000000000000000000000000000000000000000000000000815260040161254a906141bd565b60405180910390fd5b805181602001fd5b63150b7a0260e01b7bffffffffffffffffffffffffffffffffffffffffffffffffffffffff1916817bffffffffffffffffffffffffffffffffffffffffffffffffffffffff1916149150506125b0565b600190505b949350505050565b600080600090507a184f03e93ff9f4daa797ed6e38ed64bf6a1f0100000000000000008310612616577a184f03e93ff9f4daa797ed6e38ed64bf6a1f010000000000000000838161260c5761260b6141dd565b5b0492506040810190505b6d04ee2d6d415b85acef81000000008310612653576d04ee2d6d415b85acef81000000008381612649576126486141dd565b5b0492506020810190505b662386f26fc10000831061268257662386f26fc100008381612678576126776141dd565b5b0492506010810190505b6305f5e10083106126ab576305f5e10083816126a1576126a06141dd565b5b0492506008810190505b61271083106126d05761271083816126c6576126c56141dd565b5b0492506004810190505b606483106126f357606483816126e9576126e86141dd565b5b0492506002810190505b600a8310612702576001810190505b80915050919050565b6127158383612789565b6127226000848484612431565b612761576040517f08c379a0000000000000000000000000000000000000000000000000000000008152600401612758906141bd565b60405180910390fd5b505050565b6000808273ffffffffffffffffffffffffffffffffffffffff163b119050919050565b600073ffffffffffffffffffffffffffffffffffffffff168273ffffffffffffffffffffffffffffffffffffffff16036127f8576040517f08c379a00000000000000000000000000000000000000000000000000000000081526004016127ef906143e2565b60405180910390fd5b61280181612298565b15612841576040517f08c379a00000000000000000000000000000000000000000000000000000000081526004016128389061444e565b60405180910390fd5b61284f6000838360016122d9565b61285881612298565b15612898576040517f08c379a000000000000000000000000000000000000000000000000000000000815260040161288f9061444e565b60405180910390fd5b6001600360008473ffffffffffffffffffffffffffffffffffffffff1673ffffffffffffffffffffffffffffffffffffffff16815260200190815260200160002060008282540192505081905550816002600083815260200190815260200160002060006101000a81548173ffffffffffffffffffffffffffffffffffffffff021916908373ffffffffffffffffffffffffffffffffffffffff160217905550808273ffffffffffffffffffffffffffffffffffffffff16600073ffffffffffffffffffffffffffffffffffffffff167fddf252ad1be2c89b69c2b068fc378daa952ba7f163c4a11628f55a4df523b3ef60405160405180910390a46129a26000838360016123ff565b5050565b6040518060c001604052806000815260200160608152602001606081526020016000815260200160008152602001600081525090565b6000604051905090565b600080fd5b600080fd5b60007fffffffff0000000000000000000000000000000000000000000000000000000082169050919050565b612a25816129f0565b8114612a3057600080fd5b50565b600081359050612a4281612a1c565b92915050565b600060208284031215612a5e57612a5d6129e6565b5b6000612a6c84828501612a33565b91505092915050565b60008115159050919050565b612a8a81612a75565b82525050565b6000602082019050612aa56000830184612a81565b92915050565b6000819050919050565b612abe81612aab565b8114612ac957600080fd5b50565b600081359050612adb81612ab5565b92915050565b600060208284031215612af757612af66129e6565b5b6000612b0584828501612acc565b91505092915050565b600081519050919050565b600082825260208201905092915050565b60005b83811015612b48578082015181840152602081019050612b2d565b60008484015250505050565b6000601f19601f8301169050919050565b6000612b7082612b0e565b612b7a8185612b19565b9350612b8a818560208601612b2a565b612b9381612b54565b840191505092915050565b60006020820190508181036000830152612bb88184612b65565b905092915050565b600073ffffffffffffffffffffffffffffffffffffffff82169050919050565b6000612beb82612bc0565b9050919050565b612bfb81612be0565b82525050565b6000602082019050612c166000830184612bf2565b92915050565b612c2581612be0565b8114612c3057600080fd5b50565b600081359050612c4281612c1c565b92915050565b60008060408385031215612c5f57612c5e6129e6565b5b6000612c6d85828601612c33565b9250506020612c7e85828601612acc565b9150509250929050565b600060208284031215612c9e57612c9d6129e6565b5b6000612cac84828501612c33565b91505092915050565b600080600060608486031215612cce57612ccd6129e6565b5b6000612cdc86828701612c33565b9350506020612ced86828701612c33565b9250506040612cfe86828701612acc565b9150509250925092565b612d1181612aab565b82525050565b6000602082019050612d2c6000830184612d08565b92915050565b612d3b81612a75565b8114612d4657600080fd5b50565b600081359050612d5881612d32565b92915050565b60008060408385031215612d7557612d746129e6565b5b6000612d8385828601612c33565b9250506020612d9485828601612d49565b9150509250929050565b600080fd5b600080fd5b7f4e487b7100000000000000000000000000000000000000000000000000000000600052604160045260246000fd5b612de082612b54565b810181811067ffffffffffffffff82111715612dff57612dfe612da8565b5b80604052505050565b6000612e126129dc565b9050612e1e8282612dd7565b919050565b600067ffffffffffffffff821115612e3e57612e3d612da8565b5b612e4782612b54565b9050602081019050919050565b82818337600083830152505050565b6000612e76612e7184612e23565b612e08565b905082815260208101848484011115612e9257612e91612da3565b5b612e9d848285612e54565b509392505050565b600082601f830112612eba57612eb9612d9e565b5b8135612eca848260208601612e63565b91505092915050565b60008060008060808587031215612eed57612eec6129e6565b5b6000612efb87828801612c33565b9450506020612f0c87828801612c33565b9350506040612f1d87828801612acc565b925050606085013567ffffffffffffffff811115612f3e57612f3d6129eb565b5b612f4a87828801612ea5565b91505092959194509250565b600081519050919050565b600082825260208201905092915050565b6000819050602082019050919050565b612f8b81612aab565b82525050565b600082825260208201905092915050565b6000612fad82612b0e565b612fb78185612f91565b9350612fc7818560208601612b2a565b612fd081612b54565b840191505092915050565b600060c083016000830151612ff36000860182612f82565b506020830151848203602086015261300b8282612fa2565b915050604083015184820360408601526130258282612fa2565b915050606083015161303a6060860182612f82565b50608083015161304d6080860182612f82565b5060a083015161306060a0860182612f82565b508091505092915050565b60006130778383612fdb565b905092915050565b6000602082019050919050565b600061309782612f56565b6130a18185612f61565b9350836020820285016130b385612f72565b8060005b858110156130ef57848403895281516130d0858261306b565b94506130db8361307f565b925060208a019950506001810190506130b7565b50829750879550505050505092915050565b6000602082019050818103600083015261311b818461308c565b905092915050565b600060c08301600083015161313b6000860182612f82565b50602083015184820360208601526131538282612fa2565b9150506040830151848203604086015261316d8282612fa2565b91505060608301516131826060860182612f82565b5060808301516131956080860182612f82565b5060a08301516131a860a0860182612f82565b508091505092915050565b600060208201905081810360008301526131cd8184613123565b905092915050565b600060c0820190506131ea6000830189612d08565b81810360208301526131fc8188612b65565b905081810360408301526132108187612b65565b905061321f6060830186612d08565b61322c6080830185612d08565b61323960a0830184612d08565b979650505050505050565b6000806040838503121561325b5761325a6129e6565b5b600061326985828601612c33565b925050602061327a85828601612c33565b9150509250929050565b600081519050919050565b600082825260208201905092915050565b6000819050602082019050919050565b60006132bc8383612f82565b60208301905092915050565b6000602082019050919050565b60006132e082613284565b6132ea818561328f565b93506132f5836132a0565b8060005b8381101561332657815161330d88826132b0565b9750613318836132c8565b9250506001810190506132f9565b5085935050505092915050565b6000602082019050818103600083015261334d81846132d5565b905092915050565b7f6e6f74206f776e65640000000000000000000000000000000000000000000000600082015250565b600061338b600983612b19565b915061339682613355565b602082019050919050565b600060208201905081810360008301526133ba8161337e565b9050919050565b7f636861726163746572206d757374206861766520485000000000000000000000600082015250565b60006133f7601683612b19565b9150613402826133c1565b602082019050919050565b60006020820190508181036000830152613426816133ea565b9050919050565b7f626f7373206d7573742068617665204850000000000000000000000000000000600082015250565b6000613463601183612b19565b915061346e8261342d565b602082019050919050565b6000602082019050818103600083015261349281613456565b9050919050565b7f4e487b7100000000000000000000000000000000000000000000000000000000600052601160045260246000fd5b60006134d382612aab565b91506134de83612aab565b92508282039050818111156134f6576134f5613499565b5b92915050565b60006040820190506135116000830185612d08565b61351e6020830184612d08565b9392505050565b7f4e487b7100000000000000000000000000000000000000000000000000000000600052602260045260246000fd5b6000600282049050600182168061356c57607f821691505b60208210810361357f5761357e613525565b5b50919050565b7f4552433732313a20617070726f76616c20746f2063757272656e74206f776e6560008201527f7200000000000000000000000000000000000000000000000000000000000000602082015250565b60006135e1602183612b19565b91506135ec82613585565b604082019050919050565b60006020820190508181036000830152613610816135d4565b9050919050565b7f4552433732313a20617070726f76652063616c6c6572206973206e6f7420746f60008201527f6b656e206f776e6572206f7220617070726f76656420666f7220616c6c000000602082015250565b6000613673603d83612b19565b915061367e82613617565b604082019050919050565b600060208201905081810360008301526136a281613666565b9050919050565b7f4552433732313a2063616c6c6572206973206e6f7420746f6b656e206f776e6560008201527f72206f7220617070726f76656400000000000000000000000000000000000000602082015250565b6000613705602d83612b19565b9150613710826136a9565b604082019050919050565b60006020820190508181036000830152613734816136f8565b9050919050565b7f4552433732313a20696e76616c696420746f6b656e2049440000000000000000600082015250565b6000613771601883612b19565b915061377c8261373b565b602082019050919050565b600060208201905081810360008301526137a081613764565b9050919050565b7f4552433732313a2061646472657373207a65726f206973206e6f74206120766160008201527f6c6964206f776e65720000000000000000000000000000000000000000000000602082015250565b6000613803602983612b19565b915061380e826137a7565b604082019050919050565b60006020820190508181036000830152613832816137f6565b9050919050565b7f416c726561647920637265617465640000000000000000000000000000000000600082015250565b600061386f600f83612b19565b915061387a82613839565b602082019050919050565b6000602082019050818103600083015261389e81613862565b9050919050565b600081905092915050565b7f7b226e616d65223a202200000000000000000000000000000000000000000000600082015250565b60006138e6600a836138a5565b91506138f1826138b0565b600a82019050919050565b600061390782612b0e565b61391181856138a5565b9350613921818560208601612b2a565b80840191505092915050565b7f202d2d204e465420233a20000000000000000000000000000000000000000000600082015250565b6000613963600b836138a5565b915061396e8261392d565b600b82019050919050565b7f222c20226465736372697074696f6e223a20225468697320697320616e204e4660008201527f542074686174206c6574732070656f706c6520706c617920696e20746865206760208201527f616d65204d657461766572736520536c6179657221222c2022696d616765223a60408201527f2022000000000000000000000000000000000000000000000000000000000000606082015250565b6000613a216062836138a5565b9150613a2c82613979565b606282019050919050565b7f222c202261747472696275746573223a205b207b202274726169745f7479706560008201527f223a20224865616c746820506f696e7473222c202276616c7565223a20000000602082015250565b6000613a93603d836138a5565b9150613a9e82613a37565b603d82019050919050565b7f2c20226d61785f76616c7565223a000000000000000000000000000000000000600082015250565b6000613adf600e836138a5565b9150613aea82613aa9565b600e82019050919050565b7f7d2c207b202274726169745f74797065223a202241747461636b2044616d616760008201527f65222c202276616c7565223a2000000000000000000000000000000000000000602082015250565b6000613b51602d836138a5565b9150613b5c82613af5565b602d82019050919050565b7f7d205d7d00000000000000000000000000000000000000000000000000000000600082015250565b6000613b9d6004836138a5565b9150613ba882613b67565b600482019050919050565b6000613bbe826138d9565b9150613bca82896138fc565b9150613bd582613956565b9150613be182886138fc565b9150613bec82613a14565b9150613bf882876138fc565b9150613c0382613a86565b9150613c0f82866138fc565b9150613c1a82613ad2565b9150613c2682856138fc565b9150613c3182613b44565b9150613c3d82846138fc565b9150613c4882613b90565b9150819050979650505050505050565b7f646174613a6170706c69636174696f6e2f6a736f6e3b6261736536342c000000600082015250565b6000613c8e601d836138a5565b9150613c9982613c58565b601d82019050919050565b6000613caf82613c81565b9150613cbb82846138fc565b915081905092915050565b7f4e487b7100000000000000000000000000000000000000000000000000000000600052603260045260246000fd5b6000613d0082612aab565b91507fffffffffffffffffffffffffffffffffffffffffffffffffffffffffffffffff8203613d3257613d31613499565b5b600182019050919050565b7f4552433732313a207472616e736665722066726f6d20696e636f72726563742060008201527f6f776e6572000000000000000000000000000000000000000000000000000000602082015250565b6000613d99602583612b19565b9150613da482613d3d565b604082019050919050565b60006020820190508181036000830152613dc881613d8c565b9050919050565b7f4552433732313a207472616e7366657220746f20746865207a65726f2061646460008201527f7265737300000000000000000000000000000000000000000000000000000000602082015250565b6000613e2b602483612b19565b9150613e3682613dcf565b604082019050919050565b60006020820190508181036000830152613e5a81613e1e565b9050919050565b7f4552433732313a20617070726f766520746f2063616c6c657200000000000000600082015250565b6000613e97601983612b19565b9150613ea282613e61565b602082019050919050565b60006020820190508181036000830152613ec681613e8a565b9050919050565b60008190508160005260206000209050919050565b60006020601f8301049050919050565b600082821b905092915050565b600060088302613f2f7fffffffffffffffffffffffffffffffffffffffffffffffffffffffffffffffff82613ef2565b613f398683613ef2565b95508019841693508086168417925050509392505050565b6000819050919050565b6000613f76613f71613f6c84612aab565b613f51565b612aab565b9050919050565b6000819050919050565b613f9083613f5b565b613fa4613f9c82613f7d565b848454613eff565b825550505050565b600090565b613fb9613fac565b613fc4818484613f87565b505050565b5b81811015613fe857613fdd600082613fb1565b600181019050613fca565b5050565b601f82111561402d57613ffe81613ecd565b61400784613ee2565b81016020851015614016578190505b61402a61402285613ee2565b830182613fc9565b50505b505050565b600082821c905092915050565b600061405060001984600802614032565b1980831691505092915050565b6000614069838361403f565b9150826002028217905092915050565b61408282612b0e565b67ffffffffffffffff81111561409b5761409a612da8565b5b6140a58254613554565b6140b0828285613fec565b600060209050601f8311600181146140e357600084156140d1578287015190505b6140db858261405d565b865550614143565b601f1984166140f186613ecd565b60005b82811015614119578489015182556001820191506020850194506020810190506140f4565b868310156141365784890151614132601f89168261403f565b8355505b6001600288020188555050505b505050505050565b7f4552433732313a207472616e7366657220746f206e6f6e20455243373231526560008201527f63656976657220696d706c656d656e7465720000000000000000000000000000602082015250565b60006141a7603283612b19565b91506141b28261414b565b604082019050919050565b600060208201905081810360008301526141d68161419a565b9050919050565b7f4e487b7100000000000000000000000000000000000000000000000000000000600052601260045260246000fd5b600061421782612aab565b915061422283612aab565b925082820190508082111561423a57614239613499565b5b92915050565b600061424b82612aab565b915061425683612aab565b925082614266576142656141dd565b5b828204905092915050565b600061427c82612aab565b915061428783612aab565b925082820261429581612aab565b915082820484148315176142ac576142ab613499565b5b5092915050565b600081519050919050565b600082825260208201905092915050565b60006142da826142b3565b6142e481856142be565b93506142f4818560208601612b2a565b6142fd81612b54565b840191505092915050565b600060808201905061431d6000830187612bf2565b61432a6020830186612bf2565b6143376040830185612d08565b818103606083015261434981846142cf565b905095945050505050565b60008151905061436381612a1c565b92915050565b60006020828403121561437f5761437e6129e6565b5b600061438d84828501614354565b91505092915050565b7f4552433732313a206d696e7420746f20746865207a65726f2061646472657373600082015250565b60006143cc602083612b19565b91506143d782614396565b602082019050919050565b600060208201905081810360008301526143fb816143bf565b9050919050565b7f4552433732313a20746f6b656e20616c7265616479206d696e74656400000000600082015250565b6000614438601c83612b19565b915061444382614402565b602082019050919050565b600060208201905081810360008301526144678161442b565b905091905056fe4142434445464748494a4b4c4d4e4f505152535455565758595a6162636465666768696a6b6c6d6e6f707172737475767778797a303132333435363738392b2fa2646970667358221220d5450ba7d2ad78634e566f253252b79b165eb0dd183c44745c3381e32633267064736f6c63430008110033",
  "linkReferences": {},
  "deployedLinkReferences": {}
}